{
  "transactions": [
    {
      "hash": "0x2a6239fd1771500629691c35c3e6bd7c7e794954bdfc984ce05fa6195d1887e0",
      "transactionType": "CREATE",
      "contractName": "MockERC20",
      "contractAddress": "0xe7f1725e7734ce288f8367e1bb143e90bb3f0512",
      "function": null,
      "arguments": [
        "USD Coin",
        "USDC",
        "6"
      ],
      "transaction": {
        "from": "0xf39fd6e51aad88f6f4ce6ab8827279cfffb92266",
        "value": "0x0",
        "input": "0x60e060405234801561000f575f80fd5b50604051611cd5380380611cd583398181016040528101906100319190610296565b828282825f9081610042919061052b565b508160019081610052919061052b565b508060ff1660808160ff16815250504660a0818152505061007761008960201b60201c565b60c08181525050505050505050610763565b5f7f8b73c3c69bb8fe3d512ecc4cf759cc79239f7b179b0ffacaa9a75d522b39400f5f6040516100b99190610696565b60405180910390207fc89efdaa54c0f20c7adf612882df0950f5a951637e0307cdcb4c672f298b8bc646306040516020016100f8959493929190610712565b60405160208183030381529060405280519060200120905090565b5f604051905090565b5f80fd5b5f80fd5b5f80fd5b5f80fd5b5f601f19601f8301169050919050565b7f4e487b71000000000000000000000000000000000000000000000000000000005f52604160045260245ffd5b6101728261012c565b810181811067ffffffffffffffff821117156101915761019061013c565b5b80604052505050565b5f6101a3610113565b90506101af8282610169565b919050565b5f67ffffffffffffffff8211156101ce576101cd61013c565b5b6101d78261012c565b9050602081019050919050565b8281835e5f83830152505050565b5f6102046101ff846101b4565b61019a565b9050828152602081018484840111156102205761021f610128565b5b61022b8482856101e4565b509392505050565b5f82601f83011261024757610246610124565b5b81516102578482602086016101f2565b91505092915050565b5f60ff82169050919050565b61027581610260565b811461027f575f80fd5b50565b5f815190506102908161026c565b92915050565b5f805f606084860312156102ad576102ac61011c565b5b5f84015167ffffffffffffffff8111156102ca576102c9610120565b5b6102d686828701610233565b935050602084015167ffffffffffffffff8111156102f7576102f6610120565b5b61030386828701610233565b925050604061031486828701610282565b9150509250925092565b5f81519050919050565b7f4e487b71000000000000000000000000000000000000000000000000000000005f52602260045260245ffd5b5f600282049050600182168061036c57607f821691505b60208210810361037f5761037e610328565b5b50919050565b5f819050815f5260205f209050919050565b5f6020601f8301049050919050565b5f82821b905092915050565b5f600883026103e17fffffffffffffffffffffffffffffffffffffffffffffffffffffffffffffffff826103a6565b6103eb86836103a6565b95508019841693508086168417925050509392505050565b5f819050919050565b5f819050919050565b5f61042f61042a61042584610403565b61040c565b610403565b9050919050565b5f819050919050565b61044883610415565b61045c61045482610436565b8484546103b2565b825550505050565b5f90565b610470610464565b61047b81848461043f565b505050565b5b8181101561049e576104935f82610468565b600181019050610481565b5050565b601f8211156104e3576104b481610385565b6104bd84610397565b810160208510156104cc578190505b6104e06104d885610397565b830182610480565b50505b505050565b5f82821c905092915050565b5f6105035f19846008026104e8565b1980831691505092915050565b5f61051b83836104f4565b9150826002028217905092915050565b6105348261031e565b67ffffffffffffffff81111561054d5761054c61013c565b5b6105578254610355565b6105628282856104a2565b5f60209050601f831160018114610593575f8415610581578287015190505b61058b8582610510565b8655506105f2565b601f1984166105a186610385565b5f5b828110156105c8578489015182556001820191506020850194506020810190506105a3565b868310156105e557848901516105e1601f8916826104f4565b8355505b6001600288020188555050505b505050505050565b5f81905092915050565b5f819050815f5260205f209050919050565b5f815461062281610355565b61062c81866105fa565b9450600182165f8114610646576001811461065b5761068d565b60ff198316865281151582028601935061068d565b61066485610604565b5f5b8381101561068557815481890152600182019150602081019050610666565b838801955050505b50505092915050565b5f6106a18284610616565b915081905092915050565b5f819050919050565b6106be816106ac565b82525050565b6106cd81610403565b82525050565b5f73ffffffffffffffffffffffffffffffffffffffff82169050919050565b5f6106fc826106d3565b9050919050565b61070c816106f2565b82525050565b5f60a0820190506107255f8301886106b5565b61073260208301876106b5565b61073f60408301866106b5565b61074c60608301856106c4565b6107596080830184610703565b9695505050505050565b60805160a05160c05161154861078d5f395f6106d301525f61069f01525f61067a01526115485ff3fe608060405234801561000f575f80fd5b50600436106100cd575f3560e01c806340c10f191161008a57806395d89b411161006457806395d89b4114610225578063a9059cbb14610243578063d505accf14610273578063dd62ed3e1461028f576100cd565b806340c10f19146101a957806370a08231146101c55780637ecebe00146101f5576100cd565b806306fdde03146100d1578063095ea7b3146100ef57806318160ddd1461011f57806323b872dd1461013d578063313ce5671461016d5780633644e5151461018b575b5f80fd5b6100d96102bf565b6040516100e69190610d9b565b60405180910390f35b61010960048036038101906101049190610e4c565b61034a565b6040516101169190610ea4565b60405180910390f35b610127610437565b6040516101349190610ecc565b60405180910390f35b61015760048036038101906101529190610ee5565b61043d565b6040516101649190610ea4565b60405180910390f35b610175610678565b6040516101829190610f50565b60405180910390f35b61019361069c565b6040516101a09190610f81565b60405180910390f35b6101c360048036038101906101be9190610e4c565b6106f8565b005b6101df60048036038101906101da9190610f9a565b610706565b6040516101ec9190610ecc565b60405180910390f35b61020f600480360381019061020a9190610f9a565b61071b565b60405161021c9190610ecc565b60405180910390f35b61022d610730565b60405161023a9190610d9b565b60405180910390f35b61025d60048036038101906102589190610e4c565b6107bc565b60405161026a9190610ea4565b60405180910390f35b61028d60048036038101906102889190611019565b6108c9565b005b6102a960048036038101906102a491906110b6565b610bb6565b6040516102b69190610ecc565b60405180910390f35b5f80546102cb90611121565b80601f01602080910402602001604051908101604052809291908181526020018280546102f790611121565b80156103425780601f1061031957610100808354040283529160200191610342565b820191905f5260205f20905b81548152906001019060200180831161032557829003601f168201915b505050505081565b5f8160045f3373ffffffffffffffffffffffffffffffffffffffff1673ffffffffffffffffffffffffffffffffffffffff1681526020019081526020015f205f8573ffffffffffffffffffffffffffffffffffffffff1673ffffffffffffffffffffffffffffffffffffffff1681526020019081526020015f20819055508273ffffffffffffffffffffffffffffffffffffffff163373ffffffffffffffffffffffffffffffffffffffff167f8c5be1e5ebec7d5bd14f71427d1e84f3dd0314c0f7b2291e5b200ac8c7c3b925846040516104259190610ecc565b60405180910390a36001905092915050565b60025481565b5f8060045f8673ffffffffffffffffffffffffffffffffffffffff1673ffffffffffffffffffffffffffffffffffffffff1681526020019081526020015f205f3373ffffffffffffffffffffffffffffffffffffffff1673ffffffffffffffffffffffffffffffffffffffff1681526020019081526020015f205490507fffffffffffffffffffffffffffffffffffffffffffffffffffffffffffffffff811461056a5782816104ed919061117e565b60045f8773ffffffffffffffffffffffffffffffffffffffff1673ffffffffffffffffffffffffffffffffffffffff1681526020019081526020015f205f3373ffffffffffffffffffffffffffffffffffffffff1673ffffffffffffffffffffffffffffffffffffffff1681526020019081526020015f20819055505b8260035f8773ffffffffffffffffffffffffffffffffffffffff1673ffffffffffffffffffffffffffffffffffffffff1681526020019081526020015f205f8282546105b6919061117e565b925050819055508260035f8673ffffffffffffffffffffffffffffffffffffffff1673ffffffffffffffffffffffffffffffffffffffff1681526020019081526020015f205f82825401925050819055508373ffffffffffffffffffffffffffffffffffffffff168573ffffffffffffffffffffffffffffffffffffffff167fddf252ad1be2c89b69c2b068fc378daa952ba7f163c4a11628f55a4df523b3ef856040516106649190610ecc565b60405180910390a360019150509392505050565b7f000000000000000000000000000000000000000000000000000000000000000081565b5f7f000000000000000000000000000000000000000000000000000000000000000046146106d1576106cc610bd6565b6106f3565b7f00000000000000000000000000000000000000000000000000000000000000005b905090565b6107028282610c60565b5050565b6003602052805f5260405f205f915090505481565b6005602052805f5260405f205f915090505481565b6001805461073d90611121565b80601f016020809104026020016040519081016040528092919081815260200182805461076990611121565b80156107b45780601f1061078b576101008083540402835291602001916107b4565b820191905f5260205f20905b81548152906001019060200180831161079757829003601f168201915b505050505081565b5f8160035f3373ffffffffffffffffffffffffffffffffffffffff1673ffffffffffffffffffffffffffffffffffffffff1681526020019081526020015f205f828254610809919061117e565b925050819055508160035f8573ffffffffffffffffffffffffffffffffffffffff1673ffffffffffffffffffffffffffffffffffffffff1681526020019081526020015f205f82825401925050819055508273ffffffffffffffffffffffffffffffffffffffff163373ffffffffffffffffffffffffffffffffffffffff167fddf252ad1be2c89b69c2b068fc378daa952ba7f163c4a11628f55a4df523b3ef846040516108b79190610ecc565b60405180910390a36001905092915050565b4284101561090c576040517f08c379a0000000000000000000000000000000000000000000000000000000008152600401610903906111fb565b60405180910390fd5b5f600161091761069c565b7f6e71edae12b1b97f4d1f60370fef10105fa2faae0126114a169c64845d6126c98a8a8a60055f8f73ffffffffffffffffffffffffffffffffffffffff1673ffffffffffffffffffffffffffffffffffffffff1681526020019081526020015f205f815480929190600101919050558b60405160200161099c96959493929190611228565b604051602081830303815290604052805190602001206040516020016109c39291906112fb565b604051602081830303815290604052805190602001208585856040515f81526020016040526040516109f89493929190611331565b6020604051602081039080840390855afa158015610a18573d5f803e3d5ffd5b5050506020604051035190505f73ffffffffffffffffffffffffffffffffffffffff168173ffffffffffffffffffffffffffffffffffffffff1614158015610a8b57508773ffffffffffffffffffffffffffffffffffffffff168173ffffffffffffffffffffffffffffffffffffffff16145b610aca576040517f08c379a0000000000000000000000000000000000000000000000000000000008152600401610ac1906113be565b60405180910390fd5b8560045f8373ffffffffffffffffffffffffffffffffffffffff1673ffffffffffffffffffffffffffffffffffffffff1681526020019081526020015f205f8973ffffffffffffffffffffffffffffffffffffffff1673ffffffffffffffffffffffffffffffffffffffff1681526020019081526020015f2081905550508573ffffffffffffffffffffffffffffffffffffffff168773ffffffffffffffffffffffffffffffffffffffff167f8c5be1e5ebec7d5bd14f71427d1e84f3dd0314c0f7b2291e5b200ac8c7c3b92587604051610ba59190610ecc565b60405180910390a350505050505050565b6004602052815f5260405f20602052805f5260405f205f91509150505481565b5f7f8b73c3c69bb8fe3d512ecc4cf759cc79239f7b179b0ffacaa9a75d522b39400f5f604051610c069190611478565b60405180910390207fc89efdaa54c0f20c7adf612882df0950f5a951637e0307cdcb4c672f298b8bc64630604051602001610c4595949392919061148e565b60405160208183030381529060405280519060200120905090565b8060025f828254610c7191906114df565b925050819055508060035f8473ffffffffffffffffffffffffffffffffffffffff1673ffffffffffffffffffffffffffffffffffffffff1681526020019081526020015f205f82825401925050819055508173ffffffffffffffffffffffffffffffffffffffff165f73ffffffffffffffffffffffffffffffffffffffff167fddf252ad1be2c89b69c2b068fc378daa952ba7f163c4a11628f55a4df523b3ef83604051610d1f9190610ecc565b60405180910390a35050565b5f81519050919050565b5f82825260208201905092915050565b8281835e5f83830152505050565b5f601f19601f8301169050919050565b5f610d6d82610d2b565b610d778185610d35565b9350610d87818560208601610d45565b610d9081610d53565b840191505092915050565b5f6020820190508181035f830152610db38184610d63565b905092915050565b5f80fd5b5f73ffffffffffffffffffffffffffffffffffffffff82169050919050565b5f610de882610dbf565b9050919050565b610df881610dde565b8114610e02575f80fd5b50565b5f81359050610e1381610def565b92915050565b5f819050919050565b610e2b81610e19565b8114610e35575f80fd5b50565b5f81359050610e4681610e22565b92915050565b5f8060408385031215610e6257610e61610dbb565b5b5f610e6f85828601610e05565b9250506020610e8085828601610e38565b9150509250929050565b5f8115159050919050565b610e9e81610e8a565b82525050565b5f602082019050610eb75f830184610e95565b92915050565b610ec681610e19565b82525050565b5f602082019050610edf5f830184610ebd565b92915050565b5f805f60608486031215610efc57610efb610dbb565b5b5f610f0986828701610e05565b9350506020610f1a86828701610e05565b9250506040610f2b86828701610e38565b9150509250925092565b5f60ff82169050919050565b610f4a81610f35565b82525050565b5f602082019050610f635f830184610f41565b92915050565b5f819050919050565b610f7b81610f69565b82525050565b5f602082019050610f945f830184610f72565b92915050565b5f60208284031215610faf57610fae610dbb565b5b5f610fbc84828501610e05565b91505092915050565b610fce81610f35565b8114610fd8575f80fd5b50565b5f81359050610fe981610fc5565b92915050565b610ff881610f69565b8114611002575f80fd5b50565b5f8135905061101381610fef565b92915050565b5f805f805f805f60e0888a03121561103457611033610dbb565b5b5f6110418a828b01610e05565b97505060206110528a828b01610e05565b96505060406110638a828b01610e38565b95505060606110748a828b01610e38565b94505060806110858a828b01610fdb565b93505060a06110968a828b01611005565b92505060c06110a78a828b01611005565b91505092959891949750929550565b5f80604083850312156110cc576110cb610dbb565b5b5f6110d985828601610e05565b92505060206110ea85828601610e05565b9150509250929050565b7f4e487b71000000000000000000000000000000000000000000000000000000005f52602260045260245ffd5b5f600282049050600182168061113857607f821691505b60208210810361114b5761114a6110f4565b5b50919050565b7f4e487b71000000000000000000000000000000000000000000000000000000005f52601160045260245ffd5b5f61118882610e19565b915061119383610e19565b92508282039050818111156111ab576111aa611151565b5b92915050565b7f5045524d49545f444541444c494e455f455850495245440000000000000000005f82015250565b5f6111e5601783610d35565b91506111f0826111b1565b602082019050919050565b5f6020820190508181035f830152611212816111d9565b9050919050565b61122281610dde565b82525050565b5f60c08201905061123b5f830189610f72565b6112486020830188611219565b6112556040830187611219565b6112626060830186610ebd565b61126f6080830185610ebd565b61127c60a0830184610ebd565b979650505050505050565b5f81905092915050565b7f19010000000000000000000000000000000000000000000000000000000000005f82015250565b5f6112c5600283611287565b91506112d082611291565b600282019050919050565b5f819050919050565b6112f56112f082610f69565b6112db565b82525050565b5f611305826112b9565b915061131182856112e4565b60208201915061132182846112e4565b6020820191508190509392505050565b5f6080820190506113445f830187610f72565b6113516020830186610f41565b61135e6040830185610f72565b61136b6060830184610f72565b95945050505050565b7f494e56414c49445f5349474e45520000000000000000000000000000000000005f82015250565b5f6113a8600e83610d35565b91506113b382611374565b602082019050919050565b5f6020820190508181035f8301526113d58161139c565b9050919050565b5f81905092915050565b5f819050815f5260205f209050919050565b5f815461140481611121565b61140e81866113dc565b9450600182165f8114611428576001811461143d5761146f565b60ff198316865281151582028601935061146f565b611446856113e6565b5f5b8381101561146757815481890152600182019150602081019050611448565b838801955050505b50505092915050565b5f61148382846113f8565b915081905092915050565b5f60a0820190506114a15f830188610f72565b6114ae6020830187610f72565b6114bb6040830186610f72565b6114c86060830185610ebd565b6114d56080830184611219565b9695505050505050565b5f6114e982610e19565b91506114f483610e19565b925082820190508082111561150c5761150b611151565b5b9291505056fea26469706673582212201b65b4ed9f891e9cc3ea300def08ece13306f56afe50ab7412280a62d363277164736f6c63430008190033000000000000000000000000000000000000000000000000000000000000006000000000000000000000000000000000000000000000000000000000000000a00000000000000000000000000000000000000000000000000000000000000006000000000000000000000000000000000000000000000000000000000000000855534420436f696e00000000000000000000000000000000000000000000000000000000000000000000000000000000000000000000000000000000000000045553444300000000000000000000000000000000000000000000000000000000",
        "nonce": "0x1",
        "chainId": "0x539"
      },
      "additionalContracts": [],
      "isFixedGasLimit": false
    },
    {
      "hash": "0x0999c5afa3681fea10a7b319285c9caf82cf7fd9d8b16d51c2257632299256a8",
      "transactionType": "CREATE",
      "contractName": "MockERC20",
      "contractAddress": "0x9fe46736679d2d9a65f0992f2272de9f3c7fa6e0",
      "function": null,
      "arguments": [
        "Base",
        "BASE",
        "18"
      ],
      "transaction": {
        "from": "0xf39fd6e51aad88f6f4ce6ab8827279cfffb92266",
        "value": "0x0",
        "input": "0x60e060405234801561000f575f80fd5b50604051611cd5380380611cd583398181016040528101906100319190610296565b828282825f9081610042919061052b565b508160019081610052919061052b565b508060ff1660808160ff16815250504660a0818152505061007761008960201b60201c565b60c08181525050505050505050610763565b5f7f8b73c3c69bb8fe3d512ecc4cf759cc79239f7b179b0ffacaa9a75d522b39400f5f6040516100b99190610696565b60405180910390207fc89efdaa54c0f20c7adf612882df0950f5a951637e0307cdcb4c672f298b8bc646306040516020016100f8959493929190610712565b60405160208183030381529060405280519060200120905090565b5f604051905090565b5f80fd5b5f80fd5b5f80fd5b5f80fd5b5f601f19601f8301169050919050565b7f4e487b71000000000000000000000000000000000000000000000000000000005f52604160045260245ffd5b6101728261012c565b810181811067ffffffffffffffff821117156101915761019061013c565b5b80604052505050565b5f6101a3610113565b90506101af8282610169565b919050565b5f67ffffffffffffffff8211156101ce576101cd61013c565b5b6101d78261012c565b9050602081019050919050565b8281835e5f83830152505050565b5f6102046101ff846101b4565b61019a565b9050828152602081018484840111156102205761021f610128565b5b61022b8482856101e4565b509392505050565b5f82601f83011261024757610246610124565b5b81516102578482602086016101f2565b91505092915050565b5f60ff82169050919050565b61027581610260565b811461027f575f80fd5b50565b5f815190506102908161026c565b92915050565b5f805f606084860312156102ad576102ac61011c565b5b5f84015167ffffffffffffffff8111156102ca576102c9610120565b5b6102d686828701610233565b935050602084015167ffffffffffffffff8111156102f7576102f6610120565b5b61030386828701610233565b925050604061031486828701610282565b9150509250925092565b5f81519050919050565b7f4e487b71000000000000000000000000000000000000000000000000000000005f52602260045260245ffd5b5f600282049050600182168061036c57607f821691505b60208210810361037f5761037e610328565b5b50919050565b5f819050815f5260205f209050919050565b5f6020601f8301049050919050565b5f82821b905092915050565b5f600883026103e17fffffffffffffffffffffffffffffffffffffffffffffffffffffffffffffffff826103a6565b6103eb86836103a6565b95508019841693508086168417925050509392505050565b5f819050919050565b5f819050919050565b5f61042f61042a61042584610403565b61040c565b610403565b9050919050565b5f819050919050565b61044883610415565b61045c61045482610436565b8484546103b2565b825550505050565b5f90565b610470610464565b61047b81848461043f565b505050565b5b8181101561049e576104935f82610468565b600181019050610481565b5050565b601f8211156104e3576104b481610385565b6104bd84610397565b810160208510156104cc578190505b6104e06104d885610397565b830182610480565b50505b505050565b5f82821c905092915050565b5f6105035f19846008026104e8565b1980831691505092915050565b5f61051b83836104f4565b9150826002028217905092915050565b6105348261031e565b67ffffffffffffffff81111561054d5761054c61013c565b5b6105578254610355565b6105628282856104a2565b5f60209050601f831160018114610593575f8415610581578287015190505b61058b8582610510565b8655506105f2565b601f1984166105a186610385565b5f5b828110156105c8578489015182556001820191506020850194506020810190506105a3565b868310156105e557848901516105e1601f8916826104f4565b8355505b6001600288020188555050505b505050505050565b5f81905092915050565b5f819050815f5260205f209050919050565b5f815461062281610355565b61062c81866105fa565b9450600182165f8114610646576001811461065b5761068d565b60ff198316865281151582028601935061068d565b61066485610604565b5f5b8381101561068557815481890152600182019150602081019050610666565b838801955050505b50505092915050565b5f6106a18284610616565b915081905092915050565b5f819050919050565b6106be816106ac565b82525050565b6106cd81610403565b82525050565b5f73ffffffffffffffffffffffffffffffffffffffff82169050919050565b5f6106fc826106d3565b9050919050565b61070c816106f2565b82525050565b5f60a0820190506107255f8301886106b5565b61073260208301876106b5565b61073f60408301866106b5565b61074c60608301856106c4565b6107596080830184610703565b9695505050505050565b60805160a05160c05161154861078d5f395f6106d301525f61069f01525f61067a01526115485ff3fe608060405234801561000f575f80fd5b50600436106100cd575f3560e01c806340c10f191161008a57806395d89b411161006457806395d89b4114610225578063a9059cbb14610243578063d505accf14610273578063dd62ed3e1461028f576100cd565b806340c10f19146101a957806370a08231146101c55780637ecebe00146101f5576100cd565b806306fdde03146100d1578063095ea7b3146100ef57806318160ddd1461011f57806323b872dd1461013d578063313ce5671461016d5780633644e5151461018b575b5f80fd5b6100d96102bf565b6040516100e69190610d9b565b60405180910390f35b61010960048036038101906101049190610e4c565b61034a565b6040516101169190610ea4565b60405180910390f35b610127610437565b6040516101349190610ecc565b60405180910390f35b61015760048036038101906101529190610ee5565b61043d565b6040516101649190610ea4565b60405180910390f35b610175610678565b6040516101829190610f50565b60405180910390f35b61019361069c565b6040516101a09190610f81565b60405180910390f35b6101c360048036038101906101be9190610e4c565b6106f8565b005b6101df60048036038101906101da9190610f9a565b610706565b6040516101ec9190610ecc565b60405180910390f35b61020f600480360381019061020a9190610f9a565b61071b565b60405161021c9190610ecc565b60405180910390f35b61022d610730565b60405161023a9190610d9b565b60405180910390f35b61025d60048036038101906102589190610e4c565b6107bc565b60405161026a9190610ea4565b60405180910390f35b61028d60048036038101906102889190611019565b6108c9565b005b6102a960048036038101906102a491906110b6565b610bb6565b6040516102b69190610ecc565b60405180910390f35b5f80546102cb90611121565b80601f01602080910402602001604051908101604052809291908181526020018280546102f790611121565b80156103425780601f1061031957610100808354040283529160200191610342565b820191905f5260205f20905b81548152906001019060200180831161032557829003601f168201915b505050505081565b5f8160045f3373ffffffffffffffffffffffffffffffffffffffff1673ffffffffffffffffffffffffffffffffffffffff1681526020019081526020015f205f8573ffffffffffffffffffffffffffffffffffffffff1673ffffffffffffffffffffffffffffffffffffffff1681526020019081526020015f20819055508273ffffffffffffffffffffffffffffffffffffffff163373ffffffffffffffffffffffffffffffffffffffff167f8c5be1e5ebec7d5bd14f71427d1e84f3dd0314c0f7b2291e5b200ac8c7c3b925846040516104259190610ecc565b60405180910390a36001905092915050565b60025481565b5f8060045f8673ffffffffffffffffffffffffffffffffffffffff1673ffffffffffffffffffffffffffffffffffffffff1681526020019081526020015f205f3373ffffffffffffffffffffffffffffffffffffffff1673ffffffffffffffffffffffffffffffffffffffff1681526020019081526020015f205490507fffffffffffffffffffffffffffffffffffffffffffffffffffffffffffffffff811461056a5782816104ed919061117e565b60045f8773ffffffffffffffffffffffffffffffffffffffff1673ffffffffffffffffffffffffffffffffffffffff1681526020019081526020015f205f3373ffffffffffffffffffffffffffffffffffffffff1673ffffffffffffffffffffffffffffffffffffffff1681526020019081526020015f20819055505b8260035f8773ffffffffffffffffffffffffffffffffffffffff1673ffffffffffffffffffffffffffffffffffffffff1681526020019081526020015f205f8282546105b6919061117e565b925050819055508260035f8673ffffffffffffffffffffffffffffffffffffffff1673ffffffffffffffffffffffffffffffffffffffff1681526020019081526020015f205f82825401925050819055508373ffffffffffffffffffffffffffffffffffffffff168573ffffffffffffffffffffffffffffffffffffffff167fddf252ad1be2c89b69c2b068fc378daa952ba7f163c4a11628f55a4df523b3ef856040516106649190610ecc565b60405180910390a360019150509392505050565b7f000000000000000000000000000000000000000000000000000000000000000081565b5f7f000000000000000000000000000000000000000000000000000000000000000046146106d1576106cc610bd6565b6106f3565b7f00000000000000000000000000000000000000000000000000000000000000005b905090565b6107028282610c60565b5050565b6003602052805f5260405f205f915090505481565b6005602052805f5260405f205f915090505481565b6001805461073d90611121565b80601f016020809104026020016040519081016040528092919081815260200182805461076990611121565b80156107b45780601f1061078b576101008083540402835291602001916107b4565b820191905f5260205f20905b81548152906001019060200180831161079757829003601f168201915b505050505081565b5f8160035f3373ffffffffffffffffffffffffffffffffffffffff1673ffffffffffffffffffffffffffffffffffffffff1681526020019081526020015f205f828254610809919061117e565b925050819055508160035f8573ffffffffffffffffffffffffffffffffffffffff1673ffffffffffffffffffffffffffffffffffffffff1681526020019081526020015f205f82825401925050819055508273ffffffffffffffffffffffffffffffffffffffff163373ffffffffffffffffffffffffffffffffffffffff167fddf252ad1be2c89b69c2b068fc378daa952ba7f163c4a11628f55a4df523b3ef846040516108b79190610ecc565b60405180910390a36001905092915050565b4284101561090c576040517f08c379a0000000000000000000000000000000000000000000000000000000008152600401610903906111fb565b60405180910390fd5b5f600161091761069c565b7f6e71edae12b1b97f4d1f60370fef10105fa2faae0126114a169c64845d6126c98a8a8a60055f8f73ffffffffffffffffffffffffffffffffffffffff1673ffffffffffffffffffffffffffffffffffffffff1681526020019081526020015f205f815480929190600101919050558b60405160200161099c96959493929190611228565b604051602081830303815290604052805190602001206040516020016109c39291906112fb565b604051602081830303815290604052805190602001208585856040515f81526020016040526040516109f89493929190611331565b6020604051602081039080840390855afa158015610a18573d5f803e3d5ffd5b5050506020604051035190505f73ffffffffffffffffffffffffffffffffffffffff168173ffffffffffffffffffffffffffffffffffffffff1614158015610a8b57508773ffffffffffffffffffffffffffffffffffffffff168173ffffffffffffffffffffffffffffffffffffffff16145b610aca576040517f08c379a0000000000000000000000000000000000000000000000000000000008152600401610ac1906113be565b60405180910390fd5b8560045f8373ffffffffffffffffffffffffffffffffffffffff1673ffffffffffffffffffffffffffffffffffffffff1681526020019081526020015f205f8973ffffffffffffffffffffffffffffffffffffffff1673ffffffffffffffffffffffffffffffffffffffff1681526020019081526020015f2081905550508573ffffffffffffffffffffffffffffffffffffffff168773ffffffffffffffffffffffffffffffffffffffff167f8c5be1e5ebec7d5bd14f71427d1e84f3dd0314c0f7b2291e5b200ac8c7c3b92587604051610ba59190610ecc565b60405180910390a350505050505050565b6004602052815f5260405f20602052805f5260405f205f91509150505481565b5f7f8b73c3c69bb8fe3d512ecc4cf759cc79239f7b179b0ffacaa9a75d522b39400f5f604051610c069190611478565b60405180910390207fc89efdaa54c0f20c7adf612882df0950f5a951637e0307cdcb4c672f298b8bc64630604051602001610c4595949392919061148e565b60405160208183030381529060405280519060200120905090565b8060025f828254610c7191906114df565b925050819055508060035f8473ffffffffffffffffffffffffffffffffffffffff1673ffffffffffffffffffffffffffffffffffffffff1681526020019081526020015f205f82825401925050819055508173ffffffffffffffffffffffffffffffffffffffff165f73ffffffffffffffffffffffffffffffffffffffff167fddf252ad1be2c89b69c2b068fc378daa952ba7f163c4a11628f55a4df523b3ef83604051610d1f9190610ecc565b60405180910390a35050565b5f81519050919050565b5f82825260208201905092915050565b8281835e5f83830152505050565b5f601f19601f8301169050919050565b5f610d6d82610d2b565b610d778185610d35565b9350610d87818560208601610d45565b610d9081610d53565b840191505092915050565b5f6020820190508181035f830152610db38184610d63565b905092915050565b5f80fd5b5f73ffffffffffffffffffffffffffffffffffffffff82169050919050565b5f610de882610dbf565b9050919050565b610df881610dde565b8114610e02575f80fd5b50565b5f81359050610e1381610def565b92915050565b5f819050919050565b610e2b81610e19565b8114610e35575f80fd5b50565b5f81359050610e4681610e22565b92915050565b5f8060408385031215610e6257610e61610dbb565b5b5f610e6f85828601610e05565b9250506020610e8085828601610e38565b9150509250929050565b5f8115159050919050565b610e9e81610e8a565b82525050565b5f602082019050610eb75f830184610e95565b92915050565b610ec681610e19565b82525050565b5f602082019050610edf5f830184610ebd565b92915050565b5f805f60608486031215610efc57610efb610dbb565b5b5f610f0986828701610e05565b9350506020610f1a86828701610e05565b9250506040610f2b86828701610e38565b9150509250925092565b5f60ff82169050919050565b610f4a81610f35565b82525050565b5f602082019050610f635f830184610f41565b92915050565b5f819050919050565b610f7b81610f69565b82525050565b5f602082019050610f945f830184610f72565b92915050565b5f60208284031215610faf57610fae610dbb565b5b5f610fbc84828501610e05565b91505092915050565b610fce81610f35565b8114610fd8575f80fd5b50565b5f81359050610fe981610fc5565b92915050565b610ff881610f69565b8114611002575f80fd5b50565b5f8135905061101381610fef565b92915050565b5f805f805f805f60e0888a03121561103457611033610dbb565b5b5f6110418a828b01610e05565b97505060206110528a828b01610e05565b96505060406110638a828b01610e38565b95505060606110748a828b01610e38565b94505060806110858a828b01610fdb565b93505060a06110968a828b01611005565b92505060c06110a78a828b01611005565b91505092959891949750929550565b5f80604083850312156110cc576110cb610dbb565b5b5f6110d985828601610e05565b92505060206110ea85828601610e05565b9150509250929050565b7f4e487b71000000000000000000000000000000000000000000000000000000005f52602260045260245ffd5b5f600282049050600182168061113857607f821691505b60208210810361114b5761114a6110f4565b5b50919050565b7f4e487b71000000000000000000000000000000000000000000000000000000005f52601160045260245ffd5b5f61118882610e19565b915061119383610e19565b92508282039050818111156111ab576111aa611151565b5b92915050565b7f5045524d49545f444541444c494e455f455850495245440000000000000000005f82015250565b5f6111e5601783610d35565b91506111f0826111b1565b602082019050919050565b5f6020820190508181035f830152611212816111d9565b9050919050565b61122281610dde565b82525050565b5f60c08201905061123b5f830189610f72565b6112486020830188611219565b6112556040830187611219565b6112626060830186610ebd565b61126f6080830185610ebd565b61127c60a0830184610ebd565b979650505050505050565b5f81905092915050565b7f19010000000000000000000000000000000000000000000000000000000000005f82015250565b5f6112c5600283611287565b91506112d082611291565b600282019050919050565b5f819050919050565b6112f56112f082610f69565b6112db565b82525050565b5f611305826112b9565b915061131182856112e4565b60208201915061132182846112e4565b6020820191508190509392505050565b5f6080820190506113445f830187610f72565b6113516020830186610f41565b61135e6040830185610f72565b61136b6060830184610f72565b95945050505050565b7f494e56414c49445f5349474e45520000000000000000000000000000000000005f82015250565b5f6113a8600e83610d35565b91506113b382611374565b602082019050919050565b5f6020820190508181035f8301526113d58161139c565b9050919050565b5f81905092915050565b5f819050815f5260205f209050919050565b5f815461140481611121565b61140e81866113dc565b9450600182165f8114611428576001811461143d5761146f565b60ff198316865281151582028601935061146f565b611446856113e6565b5f5b8381101561146757815481890152600182019150602081019050611448565b838801955050505b50505092915050565b5f61148382846113f8565b915081905092915050565b5f60a0820190506114a15f830188610f72565b6114ae6020830187610f72565b6114bb6040830186610f72565b6114c86060830185610ebd565b6114d56080830184611219565b9695505050505050565b5f6114e982610e19565b91506114f483610e19565b925082820190508082111561150c5761150b611151565b5b9291505056fea26469706673582212201b65b4ed9f891e9cc3ea300def08ece13306f56afe50ab7412280a62d363277164736f6c63430008190033000000000000000000000000000000000000000000000000000000000000006000000000000000000000000000000000000000000000000000000000000000a000000000000000000000000000000000000000000000000000000000000000120000000000000000000000000000000000000000000000000000000000000004426173650000000000000000000000000000000000000000000000000000000000000000000000000000000000000000000000000000000000000000000000044241534500000000000000000000000000000000000000000000000000000000",
        "nonce": "0x2",
        "chainId": "0x539"
      },
      "additionalContracts": [],
      "isFixedGasLimit": false
    },
    {
      "hash": "0xdcee0c7cc4422666fe3e72f5a4d18abc0a3846751f9e3dd08604c746369ee198",
      "transactionType": "CREATE",
      "contractName": "MockERC20",
      "contractAddress": "0xcf7ed3acca5a467e9e704c703e8d87f634fb0fc9",
      "function": null,
      "arguments": [
        "Solana",
        "SOL",
        "9"
      ],
      "transaction": {
        "from": "0xf39fd6e51aad88f6f4ce6ab8827279cfffb92266",
        "value": "0x0",
        "input": "0x60e060405234801561000f575f80fd5b50604051611cd5380380611cd583398181016040528101906100319190610296565b828282825f9081610042919061052b565b508160019081610052919061052b565b508060ff1660808160ff16815250504660a0818152505061007761008960201b60201c565b60c08181525050505050505050610763565b5f7f8b73c3c69bb8fe3d512ecc4cf759cc79239f7b179b0ffacaa9a75d522b39400f5f6040516100b99190610696565b60405180910390207fc89efdaa54c0f20c7adf612882df0950f5a951637e0307cdcb4c672f298b8bc646306040516020016100f8959493929190610712565b60405160208183030381529060405280519060200120905090565b5f604051905090565b5f80fd5b5f80fd5b5f80fd5b5f80fd5b5f601f19601f8301169050919050565b7f4e487b71000000000000000000000000000000000000000000000000000000005f52604160045260245ffd5b6101728261012c565b810181811067ffffffffffffffff821117156101915761019061013c565b5b80604052505050565b5f6101a3610113565b90506101af8282610169565b919050565b5f67ffffffffffffffff8211156101ce576101cd61013c565b5b6101d78261012c565b9050602081019050919050565b8281835e5f83830152505050565b5f6102046101ff846101b4565b61019a565b9050828152602081018484840111156102205761021f610128565b5b61022b8482856101e4565b509392505050565b5f82601f83011261024757610246610124565b5b81516102578482602086016101f2565b91505092915050565b5f60ff82169050919050565b61027581610260565b811461027f575f80fd5b50565b5f815190506102908161026c565b92915050565b5f805f606084860312156102ad576102ac61011c565b5b5f84015167ffffffffffffffff8111156102ca576102c9610120565b5b6102d686828701610233565b935050602084015167ffffffffffffffff8111156102f7576102f6610120565b5b61030386828701610233565b925050604061031486828701610282565b9150509250925092565b5f81519050919050565b7f4e487b71000000000000000000000000000000000000000000000000000000005f52602260045260245ffd5b5f600282049050600182168061036c57607f821691505b60208210810361037f5761037e610328565b5b50919050565b5f819050815f5260205f209050919050565b5f6020601f8301049050919050565b5f82821b905092915050565b5f600883026103e17fffffffffffffffffffffffffffffffffffffffffffffffffffffffffffffffff826103a6565b6103eb86836103a6565b95508019841693508086168417925050509392505050565b5f819050919050565b5f819050919050565b5f61042f61042a61042584610403565b61040c565b610403565b9050919050565b5f819050919050565b61044883610415565b61045c61045482610436565b8484546103b2565b825550505050565b5f90565b610470610464565b61047b81848461043f565b505050565b5b8181101561049e576104935f82610468565b600181019050610481565b5050565b601f8211156104e3576104b481610385565b6104bd84610397565b810160208510156104cc578190505b6104e06104d885610397565b830182610480565b50505b505050565b5f82821c905092915050565b5f6105035f19846008026104e8565b1980831691505092915050565b5f61051b83836104f4565b9150826002028217905092915050565b6105348261031e565b67ffffffffffffffff81111561054d5761054c61013c565b5b6105578254610355565b6105628282856104a2565b5f60209050601f831160018114610593575f8415610581578287015190505b61058b8582610510565b8655506105f2565b601f1984166105a186610385565b5f5b828110156105c8578489015182556001820191506020850194506020810190506105a3565b868310156105e557848901516105e1601f8916826104f4565b8355505b6001600288020188555050505b505050505050565b5f81905092915050565b5f819050815f5260205f209050919050565b5f815461062281610355565b61062c81866105fa565b9450600182165f8114610646576001811461065b5761068d565b60ff198316865281151582028601935061068d565b61066485610604565b5f5b8381101561068557815481890152600182019150602081019050610666565b838801955050505b50505092915050565b5f6106a18284610616565b915081905092915050565b5f819050919050565b6106be816106ac565b82525050565b6106cd81610403565b82525050565b5f73ffffffffffffffffffffffffffffffffffffffff82169050919050565b5f6106fc826106d3565b9050919050565b61070c816106f2565b82525050565b5f60a0820190506107255f8301886106b5565b61073260208301876106b5565b61073f60408301866106b5565b61074c60608301856106c4565b6107596080830184610703565b9695505050505050565b60805160a05160c05161154861078d5f395f6106d301525f61069f01525f61067a01526115485ff3fe608060405234801561000f575f80fd5b50600436106100cd575f3560e01c806340c10f191161008a57806395d89b411161006457806395d89b4114610225578063a9059cbb14610243578063d505accf14610273578063dd62ed3e1461028f576100cd565b806340c10f19146101a957806370a08231146101c55780637ecebe00146101f5576100cd565b806306fdde03146100d1578063095ea7b3146100ef57806318160ddd1461011f57806323b872dd1461013d578063313ce5671461016d5780633644e5151461018b575b5f80fd5b6100d96102bf565b6040516100e69190610d9b565b60405180910390f35b61010960048036038101906101049190610e4c565b61034a565b6040516101169190610ea4565b60405180910390f35b610127610437565b6040516101349190610ecc565b60405180910390f35b61015760048036038101906101529190610ee5565b61043d565b6040516101649190610ea4565b60405180910390f35b610175610678565b6040516101829190610f50565b60405180910390f35b61019361069c565b6040516101a09190610f81565b60405180910390f35b6101c360048036038101906101be9190610e4c565b6106f8565b005b6101df60048036038101906101da9190610f9a565b610706565b6040516101ec9190610ecc565b60405180910390f35b61020f600480360381019061020a9190610f9a565b61071b565b60405161021c9190610ecc565b60405180910390f35b61022d610730565b60405161023a9190610d9b565b60405180910390f35b61025d60048036038101906102589190610e4c565b6107bc565b60405161026a9190610ea4565b60405180910390f35b61028d60048036038101906102889190611019565b6108c9565b005b6102a960048036038101906102a491906110b6565b610bb6565b6040516102b69190610ecc565b60405180910390f35b5f80546102cb90611121565b80601f01602080910402602001604051908101604052809291908181526020018280546102f790611121565b80156103425780601f1061031957610100808354040283529160200191610342565b820191905f5260205f20905b81548152906001019060200180831161032557829003601f168201915b505050505081565b5f8160045f3373ffffffffffffffffffffffffffffffffffffffff1673ffffffffffffffffffffffffffffffffffffffff1681526020019081526020015f205f8573ffffffffffffffffffffffffffffffffffffffff1673ffffffffffffffffffffffffffffffffffffffff1681526020019081526020015f20819055508273ffffffffffffffffffffffffffffffffffffffff163373ffffffffffffffffffffffffffffffffffffffff167f8c5be1e5ebec7d5bd14f71427d1e84f3dd0314c0f7b2291e5b200ac8c7c3b925846040516104259190610ecc565b60405180910390a36001905092915050565b60025481565b5f8060045f8673ffffffffffffffffffffffffffffffffffffffff1673ffffffffffffffffffffffffffffffffffffffff1681526020019081526020015f205f3373ffffffffffffffffffffffffffffffffffffffff1673ffffffffffffffffffffffffffffffffffffffff1681526020019081526020015f205490507fffffffffffffffffffffffffffffffffffffffffffffffffffffffffffffffff811461056a5782816104ed919061117e565b60045f8773ffffffffffffffffffffffffffffffffffffffff1673ffffffffffffffffffffffffffffffffffffffff1681526020019081526020015f205f3373ffffffffffffffffffffffffffffffffffffffff1673ffffffffffffffffffffffffffffffffffffffff1681526020019081526020015f20819055505b8260035f8773ffffffffffffffffffffffffffffffffffffffff1673ffffffffffffffffffffffffffffffffffffffff1681526020019081526020015f205f8282546105b6919061117e565b925050819055508260035f8673ffffffffffffffffffffffffffffffffffffffff1673ffffffffffffffffffffffffffffffffffffffff1681526020019081526020015f205f82825401925050819055508373ffffffffffffffffffffffffffffffffffffffff168573ffffffffffffffffffffffffffffffffffffffff167fddf252ad1be2c89b69c2b068fc378daa952ba7f163c4a11628f55a4df523b3ef856040516106649190610ecc565b60405180910390a360019150509392505050565b7f000000000000000000000000000000000000000000000000000000000000000081565b5f7f000000000000000000000000000000000000000000000000000000000000000046146106d1576106cc610bd6565b6106f3565b7f00000000000000000000000000000000000000000000000000000000000000005b905090565b6107028282610c60565b5050565b6003602052805f5260405f205f915090505481565b6005602052805f5260405f205f915090505481565b6001805461073d90611121565b80601f016020809104026020016040519081016040528092919081815260200182805461076990611121565b80156107b45780601f1061078b576101008083540402835291602001916107b4565b820191905f5260205f20905b81548152906001019060200180831161079757829003601f168201915b505050505081565b5f8160035f3373ffffffffffffffffffffffffffffffffffffffff1673ffffffffffffffffffffffffffffffffffffffff1681526020019081526020015f205f828254610809919061117e565b925050819055508160035f8573ffffffffffffffffffffffffffffffffffffffff1673ffffffffffffffffffffffffffffffffffffffff1681526020019081526020015f205f82825401925050819055508273ffffffffffffffffffffffffffffffffffffffff163373ffffffffffffffffffffffffffffffffffffffff167fddf252ad1be2c89b69c2b068fc378daa952ba7f163c4a11628f55a4df523b3ef846040516108b79190610ecc565b60405180910390a36001905092915050565b4284101561090c576040517f08c379a0000000000000000000000000000000000000000000000000000000008152600401610903906111fb565b60405180910390fd5b5f600161091761069c565b7f6e71edae12b1b97f4d1f60370fef10105fa2faae0126114a169c64845d6126c98a8a8a60055f8f73ffffffffffffffffffffffffffffffffffffffff1673ffffffffffffffffffffffffffffffffffffffff1681526020019081526020015f205f815480929190600101919050558b60405160200161099c96959493929190611228565b604051602081830303815290604052805190602001206040516020016109c39291906112fb565b604051602081830303815290604052805190602001208585856040515f81526020016040526040516109f89493929190611331565b6020604051602081039080840390855afa158015610a18573d5f803e3d5ffd5b5050506020604051035190505f73ffffffffffffffffffffffffffffffffffffffff168173ffffffffffffffffffffffffffffffffffffffff1614158015610a8b57508773ffffffffffffffffffffffffffffffffffffffff168173ffffffffffffffffffffffffffffffffffffffff16145b610aca576040517f08c379a0000000000000000000000000000000000000000000000000000000008152600401610ac1906113be565b60405180910390fd5b8560045f8373ffffffffffffffffffffffffffffffffffffffff1673ffffffffffffffffffffffffffffffffffffffff1681526020019081526020015f205f8973ffffffffffffffffffffffffffffffffffffffff1673ffffffffffffffffffffffffffffffffffffffff1681526020019081526020015f2081905550508573ffffffffffffffffffffffffffffffffffffffff168773ffffffffffffffffffffffffffffffffffffffff167f8c5be1e5ebec7d5bd14f71427d1e84f3dd0314c0f7b2291e5b200ac8c7c3b92587604051610ba59190610ecc565b60405180910390a350505050505050565b6004602052815f5260405f20602052805f5260405f205f91509150505481565b5f7f8b73c3c69bb8fe3d512ecc4cf759cc79239f7b179b0ffacaa9a75d522b39400f5f604051610c069190611478565b60405180910390207fc89efdaa54c0f20c7adf612882df0950f5a951637e0307cdcb4c672f298b8bc64630604051602001610c4595949392919061148e565b60405160208183030381529060405280519060200120905090565b8060025f828254610c7191906114df565b925050819055508060035f8473ffffffffffffffffffffffffffffffffffffffff1673ffffffffffffffffffffffffffffffffffffffff1681526020019081526020015f205f82825401925050819055508173ffffffffffffffffffffffffffffffffffffffff165f73ffffffffffffffffffffffffffffffffffffffff167fddf252ad1be2c89b69c2b068fc378daa952ba7f163c4a11628f55a4df523b3ef83604051610d1f9190610ecc565b60405180910390a35050565b5f81519050919050565b5f82825260208201905092915050565b8281835e5f83830152505050565b5f601f19601f8301169050919050565b5f610d6d82610d2b565b610d778185610d35565b9350610d87818560208601610d45565b610d9081610d53565b840191505092915050565b5f6020820190508181035f830152610db38184610d63565b905092915050565b5f80fd5b5f73ffffffffffffffffffffffffffffffffffffffff82169050919050565b5f610de882610dbf565b9050919050565b610df881610dde565b8114610e02575f80fd5b50565b5f81359050610e1381610def565b92915050565b5f819050919050565b610e2b81610e19565b8114610e35575f80fd5b50565b5f81359050610e4681610e22565b92915050565b5f8060408385031215610e6257610e61610dbb565b5b5f610e6f85828601610e05565b9250506020610e8085828601610e38565b9150509250929050565b5f8115159050919050565b610e9e81610e8a565b82525050565b5f602082019050610eb75f830184610e95565b92915050565b610ec681610e19565b82525050565b5f602082019050610edf5f830184610ebd565b92915050565b5f805f60608486031215610efc57610efb610dbb565b5b5f610f0986828701610e05565b9350506020610f1a86828701610e05565b9250506040610f2b86828701610e38565b9150509250925092565b5f60ff82169050919050565b610f4a81610f35565b82525050565b5f602082019050610f635f830184610f41565b92915050565b5f819050919050565b610f7b81610f69565b82525050565b5f602082019050610f945f830184610f72565b92915050565b5f60208284031215610faf57610fae610dbb565b5b5f610fbc84828501610e05565b91505092915050565b610fce81610f35565b8114610fd8575f80fd5b50565b5f81359050610fe981610fc5565b92915050565b610ff881610f69565b8114611002575f80fd5b50565b5f8135905061101381610fef565b92915050565b5f805f805f805f60e0888a03121561103457611033610dbb565b5b5f6110418a828b01610e05565b97505060206110528a828b01610e05565b96505060406110638a828b01610e38565b95505060606110748a828b01610e38565b94505060806110858a828b01610fdb565b93505060a06110968a828b01611005565b92505060c06110a78a828b01611005565b91505092959891949750929550565b5f80604083850312156110cc576110cb610dbb565b5b5f6110d985828601610e05565b92505060206110ea85828601610e05565b9150509250929050565b7f4e487b71000000000000000000000000000000000000000000000000000000005f52602260045260245ffd5b5f600282049050600182168061113857607f821691505b60208210810361114b5761114a6110f4565b5b50919050565b7f4e487b71000000000000000000000000000000000000000000000000000000005f52601160045260245ffd5b5f61118882610e19565b915061119383610e19565b92508282039050818111156111ab576111aa611151565b5b92915050565b7f5045524d49545f444541444c494e455f455850495245440000000000000000005f82015250565b5f6111e5601783610d35565b91506111f0826111b1565b602082019050919050565b5f6020820190508181035f830152611212816111d9565b9050919050565b61122281610dde565b82525050565b5f60c08201905061123b5f830189610f72565b6112486020830188611219565b6112556040830187611219565b6112626060830186610ebd565b61126f6080830185610ebd565b61127c60a0830184610ebd565b979650505050505050565b5f81905092915050565b7f19010000000000000000000000000000000000000000000000000000000000005f82015250565b5f6112c5600283611287565b91506112d082611291565b600282019050919050565b5f819050919050565b6112f56112f082610f69565b6112db565b82525050565b5f611305826112b9565b915061131182856112e4565b60208201915061132182846112e4565b6020820191508190509392505050565b5f6080820190506113445f830187610f72565b6113516020830186610f41565b61135e6040830185610f72565b61136b6060830184610f72565b95945050505050565b7f494e56414c49445f5349474e45520000000000000000000000000000000000005f82015250565b5f6113a8600e83610d35565b91506113b382611374565b602082019050919050565b5f6020820190508181035f8301526113d58161139c565b9050919050565b5f81905092915050565b5f819050815f5260205f209050919050565b5f815461140481611121565b61140e81866113dc565b9450600182165f8114611428576001811461143d5761146f565b60ff198316865281151582028601935061146f565b611446856113e6565b5f5b8381101561146757815481890152600182019150602081019050611448565b838801955050505b50505092915050565b5f61148382846113f8565b915081905092915050565b5f60a0820190506114a15f830188610f72565b6114ae6020830187610f72565b6114bb6040830186610f72565b6114c86060830185610ebd565b6114d56080830184611219565b9695505050505050565b5f6114e982610e19565b91506114f483610e19565b925082820190508082111561150c5761150b611151565b5b9291505056fea26469706673582212201b65b4ed9f891e9cc3ea300def08ece13306f56afe50ab7412280a62d363277164736f6c63430008190033000000000000000000000000000000000000000000000000000000000000006000000000000000000000000000000000000000000000000000000000000000a000000000000000000000000000000000000000000000000000000000000000090000000000000000000000000000000000000000000000000000000000000006536f6c616e6100000000000000000000000000000000000000000000000000000000000000000000000000000000000000000000000000000000000000000003534f4c0000000000000000000000000000000000000000000000000000000000",
        "nonce": "0x3",
        "chainId": "0x539"
      },
      "additionalContracts": [],
      "isFixedGasLimit": false
    },
    {
      "hash": "0x1788598058b0f1e8952d887134ed7063b3acb2110683862b4812c66a074a3846",
      "transactionType": "CALL",
      "contractName": "MockERC20",
      "contractAddress": "0xe7f1725e7734ce288f8367e1bb143e90bb3f0512",
      "function": "mint(address,uint256)",
      "arguments": [
        "0xf39Fd6e51aad88F6F4ce6aB8827279cffFb92266",
        "1000000000000"
      ],
      "transaction": {
        "from": "0xf39fd6e51aad88f6f4ce6ab8827279cfffb92266",
        "to": "0xe7f1725e7734ce288f8367e1bb143e90bb3f0512",
        "value": "0x0",
        "input": "0x40c10f19000000000000000000000000f39fd6e51aad88f6f4ce6ab8827279cfffb92266000000000000000000000000000000000000000000000000000000e8d4a51000",
        "nonce": "0x4",
        "chainId": "0x539"
      },
      "additionalContracts": [],
      "isFixedGasLimit": false
    },
    {
      "hash": "0xf6bd197a190f213789ac3775033b0433bf86948b9bf2bf40fd7a8811c2d094e4",
      "transactionType": "CALL",
      "contractName": "MockERC20",
      "contractAddress": "0x9fe46736679d2d9a65f0992f2272de9f3c7fa6e0",
      "function": "mint(address,uint256)",
      "arguments": [
        "0xf39Fd6e51aad88F6F4ce6aB8827279cffFb92266",
        "1000000000000000000000000"
      ],
      "transaction": {
        "from": "0xf39fd6e51aad88f6f4ce6ab8827279cfffb92266",
        "to": "0x9fe46736679d2d9a65f0992f2272de9f3c7fa6e0",
        "value": "0x0",
        "input": "0x40c10f19000000000000000000000000f39fd6e51aad88f6f4ce6ab8827279cfffb9226600000000000000000000000000000000000000000000d3c21bcecceda1000000",
        "nonce": "0x5",
        "chainId": "0x539"
      },
      "additionalContracts": [],
      "isFixedGasLimit": false
    },
    {
      "hash": "0x53d7cefd218848c939a1bb8df15caff421a46102a1dc763a4bcc06b91d9b9ca4",
      "transactionType": "CALL",
      "contractName": "MockERC20",
      "contractAddress": "0xcf7ed3acca5a467e9e704c703e8d87f634fb0fc9",
      "function": "mint(address,uint256)",
      "arguments": [
        "0xf39Fd6e51aad88F6F4ce6aB8827279cffFb92266",
        "1000000000000000"
      ],
      "transaction": {
        "from": "0xf39fd6e51aad88f6f4ce6ab8827279cfffb92266",
        "to": "0xcf7ed3acca5a467e9e704c703e8d87f634fb0fc9",
        "value": "0x0",
        "input": "0x40c10f19000000000000000000000000f39fd6e51aad88f6f4ce6ab8827279cfffb9226600000000000000000000000000000000000000000000000000038d7ea4c68000",
        "nonce": "0x6",
        "chainId": "0x539"
      },
      "additionalContracts": [],
      "isFixedGasLimit": false
    },
    {
      "hash": "0xe9ef2893c813834262345ba4b162ecd388794d361c06863592d2cbace4af279c",
      "transactionType": "CALL",
      "contractName": null,
      "contractAddress": "0x4200000000000000000000000000000000000042",
      "function": "createPair(address,address)",
      "arguments": [
        "0x0000000000000000000000000000000000000000",
        "0xe7f1725E7734CE288F8367e1Bb143E90bb3F0512"
      ],
      "transaction": {
        "from": "0xf39fd6e51aad88f6f4ce6ab8827279cfffb92266",
        "to": "0x4200000000000000000000000000000000000042",
        "value": "0x0",
        "input": "0xc9c653960000000000000000000000000000000000000000000000000000000000000000000000000000000000000000e7f1725e7734ce288f8367e1bb143e90bb3f0512",
        "nonce": "0x7",
        "chainId": "0x539"
      },
      "additionalContracts": [],
      "isFixedGasLimit": false
    },
    {
      "hash": "0x8a921eaa5368679fc284a09be2689d5a93340e20c21a01a6364087e2798b1145",
      "transactionType": "CALL",
      "contractName": null,
      "contractAddress": "0x4200000000000000000000000000000000000042",
      "function": "createPair(address,address)",
      "arguments": [
        "0x0000000000000000000000000000000000000000",
        "0x9fE46736679d2D9a65F0992F2272dE9f3c7fa6e0"
      ],
      "transaction": {
        "from": "0xf39fd6e51aad88f6f4ce6ab8827279cfffb92266",
        "to": "0x4200000000000000000000000000000000000042",
        "value": "0x0",
        "input": "0xc9c6539600000000000000000000000000000000000000000000000000000000000000000000000000000000000000009fe46736679d2d9a65f0992f2272de9f3c7fa6e0",
        "nonce": "0x8",
        "chainId": "0x539"
      },
      "additionalContracts": [],
      "isFixedGasLimit": false
    },
    {
      "hash": "0x13b98c6f8c325ac52bf1284604bb80b8fc4431e43e9a7cad14afb3c206dff539",
      "transactionType": "CALL",
      "contractName": null,
      "contractAddress": "0x4200000000000000000000000000000000000042",
      "function": "createPair(address,address)",
      "arguments": [
        "0x0000000000000000000000000000000000000000",
        "0xCf7Ed3AccA5a467e9e704C703E8D87F634fB0Fc9"
      ],
      "transaction": {
        "from": "0xf39fd6e51aad88f6f4ce6ab8827279cfffb92266",
        "to": "0x4200000000000000000000000000000000000042",
        "value": "0x0",
        "input": "0xc9c653960000000000000000000000000000000000000000000000000000000000000000000000000000000000000000cf7ed3acca5a467e9e704c703e8d87f634fb0fc9",
        "nonce": "0x9",
        "chainId": "0x539"
      },
      "additionalContracts": [],
      "isFixedGasLimit": false
    },
    {
      "hash": "0x73d4a5d5c0d8fde94657af1eee63c04fb4c705b19517e9728169a4d938efdaba",
      "transactionType": "CALL",
      "contractName": null,
      "contractAddress": "0x4200000000000000000000000000000000000042",
      "function": "placeLimitOrder(address,address,bool,uint256,uint256,uint256)",
      "arguments": [
        "0xe7f1725E7734CE288F8367e1Bb143E90bb3F0512",
        "0x0000000000000000000000000000000000000000",
        "true",
        "5900000000",
        "2950000000",
        "1000000000000000000"
      ],
      "transaction": {
        "from": "0xf39fd6e51aad88f6f4ce6ab8827279cfffb92266",
        "to": "0x4200000000000000000000000000000000000042",
        "value": "0x0",
        "input": "0xb519813b000000000000000000000000e7f1725e7734ce288f8367e1bb143e90bb3f051200000000000000000000000000000000000000000000000000000000000000000000000000000000000000000000000000000000000000000000000000000001000000000000000000000000000000000000000000000000000000015faadb0000000000000000000000000000000000000000000000000000000000afd56d800000000000000000000000000000000000000000000000000de0b6b3a7640000",
        "nonce": "0xa",
        "chainId": "0x539"
      },
      "additionalContracts": [],
      "isFixedGasLimit": false
    },
    {
      "hash": "0x48a725ed3a1a3f9f38dbb6a8e63bf28ef3999a05033f434541f039841a8228f5",
      "transactionType": "CALL",
      "contractName": null,
      "contractAddress": "0x4200000000000000000000000000000000000042",
      "function": "placeLimitOrder(address,address,bool,uint256,uint256,uint256)",
      "arguments": [
        "0xe7f1725E7734CE288F8367e1Bb143E90bb3F0512",
        "0x0000000000000000000000000000000000000000",
        "true",
        "8700000000",
        "2900000000",
        "1000000000000000000"
      ],
      "transaction": {
        "from": "0xf39fd6e51aad88f6f4ce6ab8827279cfffb92266",
        "to": "0x4200000000000000000000000000000000000042",
        "value": "0x0",
        "input": "0xb519813b000000000000000000000000e7f1725e7734ce288f8367e1bb143e90bb3f05120000000000000000000000000000000000000000000000000000000000000000000000000000000000000000000000000000000000000000000000000000000100000000000000000000000000000000000000000000000000000002068f770000000000000000000000000000000000000000000000000000000000acda7d000000000000000000000000000000000000000000000000000de0b6b3a7640000",
        "nonce": "0xb",
        "chainId": "0x539"
      },
      "additionalContracts": [],
      "isFixedGasLimit": false
    },
    {
      "hash": "0x50979a8fe9063c31fe2fc8bf4d37f72c9ea00a2da917844173065f1d44f2571e",
      "transactionType": "CALL",
      "contractName": null,
      "contractAddress": "0x4200000000000000000000000000000000000042",
      "function": "placeLimitOrder(address,address,bool,uint256,uint256,uint256)",
      "arguments": [
        "0xe7f1725E7734CE288F8367e1Bb143E90bb3F0512",
        "0x0000000000000000000000000000000000000000",
        "true",
        "14250000000",
        "2850000000",
        "1000000000000000000"
      ],
      "transaction": {
        "from": "0xf39fd6e51aad88f6f4ce6ab8827279cfffb92266",
        "to": "0x4200000000000000000000000000000000000042",
        "value": "0x0",
        "input": "0xb519813b000000000000000000000000e7f1725e7734ce288f8367e1bb143e90bb3f05120000000000000000000000000000000000000000000000000000000000000000000000000000000000000000000000000000000000000000000000000000000100000000000000000000000000000000000000000000000000000003515dbe8000000000000000000000000000000000000000000000000000000000a9df8c800000000000000000000000000000000000000000000000000de0b6b3a7640000",
        "nonce": "0xc",
        "chainId": "0x539"
      },
      "additionalContracts": [],
      "isFixedGasLimit": false
    },
    {
      "hash": "0x2f9e6e1eef824441a7c9139912808094531eed4bfd3ccfbc95a4ec54528a3d46",
      "transactionType": "CALL",
      "contractName": null,
      "contractAddress": "0x4200000000000000000000000000000000000042",
      "function": "placeLimitOrder(address,address,bool,uint256,uint256,uint256)",
      "arguments": [
        "0x0000000000000000000000000000000000000000",
        "0xe7f1725E7734CE288F8367e1Bb143E90bb3F0512",
        "false",
        "2000000000000000000",
        "3050000000",
        "1000000000000000000"
      ],
      "transaction": {
        "from": "0xf39fd6e51aad88f6f4ce6ab8827279cfffb92266",
        "to": "0x4200000000000000000000000000000000000042",
        "value": "0x1bc16d674ec80000",
        "input": "0xb519813b0000000000000000000000000000000000000000000000000000000000000000000000000000000000000000e7f1725e7734ce288f8367e1bb143e90bb3f051200000000000000000000000000000000000000000000000000000000000000000000000000000000000000000000000000000000000000001bc16d674ec8000000000000000000000000000000000000000000000000000000000000b5cb4e800000000000000000000000000000000000000000000000000de0b6b3a7640000",
        "nonce": "0xd",
        "chainId": "0x539"
      },
      "additionalContracts": [],
      "isFixedGasLimit": false
    },
    {
      "hash": "0x89de1ca04748250cf55d70b673d67f4df21d04d2d786adf602bbba863bc8ed4b",
      "transactionType": "CALL",
      "contractName": null,
      "contractAddress": "0x4200000000000000000000000000000000000042",
      "function": "placeLimitOrder(address,address,bool,uint256,uint256,uint256)",
      "arguments": [
        "0x0000000000000000000000000000000000000000",
        "0xe7f1725E7734CE288F8367e1Bb143E90bb3F0512",
        "false",
        "3000000000000000000",
        "3100000000",
        "1000000000000000000"
      ],
      "transaction": {
        "from": "0xf39fd6e51aad88f6f4ce6ab8827279cfffb92266",
        "to": "0x4200000000000000000000000000000000000042",
        "value": "0x29a2241af62c0000",
        "input": "0xb519813b0000000000000000000000000000000000000000000000000000000000000000000000000000000000000000e7f1725e7734ce288f8367e1bb143e90bb3f0512000000000000000000000000000000000000000000000000000000000000000000000000000000000000000000000000000000000000000029a2241af62c000000000000000000000000000000000000000000000000000000000000b8c63f000000000000000000000000000000000000000000000000000de0b6b3a7640000",
        "nonce": "0xe",
        "chainId": "0x539"
      },
      "additionalContracts": [],
      "isFixedGasLimit": false
    },
    {
      "hash": "0x584c9e4e29a8eff0128f2280f99b2f9e27d9198ba5e5844b2c478775ef06030f",
      "transactionType": "CALL",
      "contractName": null,
      "contractAddress": "0x4200000000000000000000000000000000000042",
      "function": "placeLimitOrder(address,address,bool,uint256,uint256,uint256)",
      "arguments": [
        "0x0000000000000000000000000000000000000000",
        "0xe7f1725E7734CE288F8367e1Bb143E90bb3F0512",
        "false",
        "5000000000000000000",
        "3150000000",
        "1000000000000000000"
      ],
      "transaction": {
        "from": "0xf39fd6e51aad88f6f4ce6ab8827279cfffb92266",
        "to": "0x4200000000000000000000000000000000000042",
        "value": "0x4563918244f40000",
        "input": "0xb519813b0000000000000000000000000000000000000000000000000000000000000000000000000000000000000000e7f1725e7734ce288f8367e1bb143e90bb3f051200000000000000000000000000000000000000000000000000000000000000000000000000000000000000000000000000000000000000004563918244f4000000000000000000000000000000000000000000000000000000000000bbc12f800000000000000000000000000000000000000000000000000de0b6b3a7640000",
        "nonce": "0xf",
        "chainId": "0x539"
      },
      "additionalContracts": [],
      "isFixedGasLimit": false
    },
    {
      "hash": "0x2a4a28c20544eb67e9572492d601581f4c42e027fe5673cf97d2ca10c490e3c5",
      "transactionType": "CALL",
      "contractName": null,
      "contractAddress": "0x4200000000000000000000000000000000000042",
      "function": "placeLimitOrder(address,address,bool,uint256,uint256,uint256)",
      "arguments": [
        "0x0000000000000000000000000000000000000000",
        "0x9fE46736679d2D9a65F0992F2272dE9f3c7fa6e0",
        "false",
        "2000000000000000000",
        "1520000000000000000000",
        "1000000000000000000"
      ],
      "transaction": {
        "from": "0xf39fd6e51aad88f6f4ce6ab8827279cfffb92266",
        "to": "0x4200000000000000000000000000000000000042",
        "value": "0x1bc16d674ec80000",
        "input": "0xb519813b00000000000000000000000000000000000000000000000000000000000000000000000000000000000000009fe46736679d2d9a65f0992f2272de9f3c7fa6e000000000000000000000000000000000000000000000000000000000000000000000000000000000000000000000000000000000000000001bc16d674ec80000000000000000000000000000000000000000000000000052663ccab1e1c000000000000000000000000000000000000000000000000000000de0b6b3a7640000",
        "nonce": "0x10",
        "chainId": "0x539"
      },
      "additionalContracts": [],
      "isFixedGasLimit": false
    },
    {
      "hash": "0xabc339429b4583be12f308b5050cb215e2c7dd7a637cf0de55f0004a27500705",
      "transactionType": "CALL",
      "contractName": null,
      "contractAddress": "0x4200000000000000000000000000000000000042",
      "function": "placeLimitOrder(address,address,bool,uint256,uint256,uint256)",
      "arguments": [
        "0x9fE46736679d2D9a65F0992F2272dE9f3c7fa6e0",
        "0x0000000000000000000000000000000000000000",
        "true",
        "4440000000000000000000",
        "1480000000000000000000",
        "1000000000000000000"
      ],
      "transaction": {
        "from": "0xf39fd6e51aad88f6f4ce6ab8827279cfffb92266",
        "to": "0x4200000000000000000000000000000000000042",
        "value": "0x0",
        "input": "0xb519813b0000000000000000000000009fe46736679d2d9a65f0992f2272de9f3c7fa6e0000000000000000000000000000000000000000000000000000000000000000000000000000000000000000000000000000000000000000000000000000000010000000000000000000000000000000000000000000000f0b160bbdf2e6000000000000000000000000000000000000000000000000000503b203e9fba2000000000000000000000000000000000000000000000000000000de0b6b3a7640000",
        "nonce": "0x11",
        "chainId": "0x539"
      },
      "additionalContracts": [],
      "isFixedGasLimit": false
    },
    {
      "hash": "0xd2bd62bc9aff2c83065970fbe1373cc9b2d93ec95ba0a609831c5bccb2e464c9",
      "transactionType": "CALL",
      "contractName": null,
      "contractAddress": "0x4200000000000000000000000000000000000042",
      "function": "placeLimitOrder(address,address,bool,uint256,uint256,uint256)",
      "arguments": [
        "0x0000000000000000000000000000000000000000",
        "0x9fE46736679d2D9a65F0992F2272dE9f3c7fa6e0",
        "false",
        "3000000000000000000",
        "1550000000000000000000",
        "1000000000000000000"
      ],
      "transaction": {
        "from": "0xf39fd6e51aad88f6f4ce6ab8827279cfffb92266",
        "to": "0x4200000000000000000000000000000000000042",
        "value": "0x29a2241af62c0000",
        "input": "0xb519813b00000000000000000000000000000000000000000000000000000000000000000000000000000000000000009fe46736679d2d9a65f0992f2272de9f3c7fa6e0000000000000000000000000000000000000000000000000000000000000000000000000000000000000000000000000000000000000000029a2241af62c0000000000000000000000000000000000000000000000000054069233bf7f7800000000000000000000000000000000000000000000000000000de0b6b3a7640000",
        "nonce": "0x12",
        "chainId": "0x539"
      },
      "additionalContracts": [],
      "isFixedGasLimit": false
    },
    {
      "hash": "0x9cf88103a72103ffcd5b264904b904d98fc09d242ce9552c752583f1cae70315",
      "transactionType": "CALL",
      "contractName": null,
      "contractAddress": "0x4200000000000000000000000000000000000042",
      "function": "placeLimitOrder(address,address,bool,uint256,uint256,uint256)",
      "arguments": [
        "0x0000000000000000000000000000000000000000",
        "0xCf7Ed3AccA5a467e9e704C703E8D87F634fB0Fc9",
        "false",
        "2000000000000000000",
        "25500000000",
        "1000000000000000000"
      ],
      "transaction": {
        "from": "0xf39fd6e51aad88f6f4ce6ab8827279cfffb92266",
        "to": "0x4200000000000000000000000000000000000042",
        "value": "0x1bc16d674ec80000",
        "input": "0xb519813b0000000000000000000000000000000000000000000000000000000000000000000000000000000000000000cf7ed3acca5a467e9e704c703e8d87f634fb0fc900000000000000000000000000000000000000000000000000000000000000000000000000000000000000000000000000000000000000001bc16d674ec8000000000000000000000000000000000000000000000000000000000005efeb1f000000000000000000000000000000000000000000000000000de0b6b3a7640000",
        "nonce": "0x13",
        "chainId": "0x539"
      },
      "additionalContracts": [],
      "isFixedGasLimit": false
    },
    {
      "hash": "0x2da2785739e1e4d9db6d5eead8063f9978178b593ea0e872410cebbbc40c8683",
      "transactionType": "CALL",
      "contractName": null,
      "contractAddress": "0x4200000000000000000000000000000000000042",
      "function": "placeLimitOrder(address,address,bool,uint256,uint256,uint256)",
      "arguments": [
        "0xCf7Ed3AccA5a467e9e704C703E8D87F634fB0Fc9",
        "0x0000000000000000000000000000000000000000",
        "true",
        "73500000000",
        "24500000000",
        "1000000000000000000"
      ],
      "transaction": {
        "from": "0xf39fd6e51aad88f6f4ce6ab8827279cfffb92266",
        "to": "0x4200000000000000000000000000000000000042",
        "value": "0x0",
        "input": "0xb519813b000000000000000000000000cf7ed3acca5a467e9e704c703e8d87f634fb0fc900000000000000000000000000000000000000000000000000000000000000000000000000000000000000000000000000000000000000000000000000000001000000000000000000000000000000000000000000000000000000111cf0ff0000000000000000000000000000000000000000000000000000000005b45055000000000000000000000000000000000000000000000000000de0b6b3a7640000",
        "nonce": "0x14",
        "chainId": "0x539"
      },
      "additionalContracts": [],
      "isFixedGasLimit": false
    },
    {
      "hash": "0xd6b85165f7cc3077120c602868a79ba4c14c9d6fbcafc638fb321ae3f1db7624",
      "transactionType": "CALL",
      "contractName": null,
      "contractAddress": "0x4200000000000000000000000000000000000042",
      "function": "placeLimitOrder(address,address,bool,uint256,uint256,uint256)",
      "arguments": [
        "0x0000000000000000000000000000000000000000",
        "0xCf7Ed3AccA5a467e9e704C703E8D87F634fB0Fc9",
        "false",
        "3000000000000000000",
        "26000000000",
        "1000000000000000000"
      ],
      "transaction": {
        "from": "0xf39fd6e51aad88f6f4ce6ab8827279cfffb92266",
        "to": "0x4200000000000000000000000000000000000042",
        "value": "0x29a2241af62c0000",
        "input": "0xb519813b0000000000000000000000000000000000000000000000000000000000000000000000000000000000000000cf7ed3acca5a467e9e704c703e8d87f634fb0fc9000000000000000000000000000000000000000000000000000000000000000000000000000000000000000000000000000000000000000029a2241af62c0000000000000000000000000000000000000000000000000000000000060db884000000000000000000000000000000000000000000000000000de0b6b3a7640000",
        "nonce": "0x15",
        "chainId": "0x539"
      },
      "additionalContracts": [],
      "isFixedGasLimit": false
    }
  ],
  "receipts": [
    {
      "status": "0x1",
      "cumulativeGasUsed": "0x1455d6",
      "logs": [],
      "logsBloom": "0x00000000000000000000000000000000000000000000000000000000000000000000000000000000000000000000000000000000000000000000000000000000000000000000000000000000000000000000000000000000000000000000000000000000000000000000000000000000000000000000000000000000000000000000000000000000000000000000000000000000000000000000000000000000000000000000000000000000000000000000000000000000000000000000000000000000000000000000000000000000000000000000000000000000000000000000000000000000000000000000000000000000000000000000000000000000",
      "type": "0x0",
      "transactionHash": "0x2a6239fd1771500629691c35c3e6bd7c7e794954bdfc984ce05fa6195d1887e0",
      "transactionIndex": "0x1",
      "blockHash": "0xbcb9042bd4e3f2f8bcca2e85f7f783aa83b1ddac25717bbd5010032dae4e6266",
      "blockNumber": "0x29",
      "gasUsed": "0x13f49c",
      "effectiveGasPrice": "0xf4240",
      "blobGasUsed": "0x0",
      "from": "0xf39fd6e51aad88f6f4ce6ab8827279cfffb92266",
      "to": null,
      "contractAddress": "0xe7f1725e7734ce288f8367e1bb143e90bb3f0512",
      "l1BaseFeeScalar": "0x146b",
      "l1BlobBaseFee": "0x1",
      "l1BlobBaseFeeScalar": "0xf79c5",
      "l1Fee": "0x49581a885d",
      "l1GasPrice": "0x3ef12787",
      "l1GasUsed": "0xdeee"
    },
    {
      "status": "0x1",
      "cumulativeGasUsed": "0x1455a6",
      "logs": [],
      "logsBloom": "0x00000000000000000000000000000000000000000000000000000000000000000000000000000000000000000000000000000000000000000000000000000000000000000000000000000000000000000000000000000000000000000000000000000000000000000000000000000000000000000000000000000000000000000000000000000000000000000000000000000000000000000000000000000000000000000000000000000000000000000000000000000000000000000000000000000000000000000000000000000000000000000000000000000000000000000000000000000000000000000000000000000000000000000000000000000000",
      "type": "0x0",
      "transactionHash": "0x0999c5afa3681fea10a7b319285c9caf82cf7fd9d8b16d51c2257632299256a8",
      "transactionIndex": "0x1",
      "blockHash": "0xa4cbfeb3e2b4a703692a95668e63949848f6701b8ba5bb4287ff18b285b62fd1",
      "blockNumber": "0x2a",
      "gasUsed": "0x13f46c",
      "effectiveGasPrice": "0xf4240",
      "blobGasUsed": "0x0",
      "from": "0xf39fd6e51aad88f6f4ce6ab8827279cfffb92266",
      "to": null,
      "contractAddress": "0x9fe46736679d2d9a65f0992f2272de9f3c7fa6e0",
      "l1BaseFeeScalar": "0x146b",
      "l1BlobBaseFee": "0x1",
      "l1BlobBaseFeeScalar": "0xf79c5",
      "l1Fee": "0x4942164c7d",
      "l1GasPrice": "0x3ef12787",
      "l1GasUsed": "0xdeab"
    },
    {
      "status": "0x1",
      "cumulativeGasUsed": "0x1455b2",
      "logs": [],
      "logsBloom": "0x00000000000000000000000000000000000000000000000000000000000000000000000000000000000000000000000000000000000000000000000000000000000000000000000000000000000000000000000000000000000000000000000000000000000000000000000000000000000000000000000000000000000000000000000000000000000000000000000000000000000000000000000000000000000000000000000000000000000000000000000000000000000000000000000000000000000000000000000000000000000000000000000000000000000000000000000000000000000000000000000000000000000000000000000000000000",
      "type": "0x0",
      "transactionHash": "0xdcee0c7cc4422666fe3e72f5a4d18abc0a3846751f9e3dd08604c746369ee198",
      "transactionIndex": "0x1",
      "blockHash": "0x9bce6751b0aea0fd2aad3f98e6c9bf38decfafc665246ec0aa763b10488fd51f",
      "blockNumber": "0x2b",
      "gasUsed": "0x13f478",
      "effectiveGasPrice": "0xf4240",
      "blobGasUsed": "0x0",
      "from": "0xf39fd6e51aad88f6f4ce6ab8827279cfffb92266",
      "to": null,
      "contractAddress": "0xcf7ed3acca5a467e9e704c703e8d87f634fb0fc9",
      "l1BaseFeeScalar": "0x146b",
      "l1BlobBaseFee": "0x1",
      "l1BlobBaseFeeScalar": "0xf79c5",
      "l1Fee": "0x49467d8baa",
      "l1GasPrice": "0x3ef12787",
      "l1GasUsed": "0xdeb9"
    },
    {
      "status": "0x1",
      "cumulativeGasUsed": "0x16ddd",
      "logs": [
        {
          "address": "0xe7f1725e7734ce288f8367e1bb143e90bb3f0512",
          "topics": [
            "0xddf252ad1be2c89b69c2b068fc378daa952ba7f163c4a11628f55a4df523b3ef",
            "0x0000000000000000000000000000000000000000000000000000000000000000",
            "0x000000000000000000000000f39fd6e51aad88f6f4ce6ab8827279cfffb92266"
          ],
          "data": "0x000000000000000000000000000000000000000000000000000000e8d4a51000",
          "blockHash": "0xae6ae18ae931978b1980cf5b59d7627c0ca5a66c6915cd05dc58bf09c98e389f",
          "blockNumber": "0x2c",
          "blockTimestamp": "0x69444076",
          "transactionHash": "0x1788598058b0f1e8952d887134ed7063b3acb2110683862b4812c66a074a3846",
          "transactionIndex": "0x1",
          "logIndex": "0x0",
          "removed": false
        }
      ],
      "logsBloom": "0x00000000000000000000000000000000000000000000000000000000000000000000000000000000000000000000000010000000000000000000000000000000000000000000000000000008000000000000000000000000000000000000000000000000020000000000000100000800000000000000000000000010000000000000000000000000000000000000000000000000000000000000000000000000000000000000000000000000000000000000000000000000000000000000000000000002000000200000000000001000000000002000000000000000000020000000000000000000000000000000000000000000000000800000000000000000",
      "type": "0x0",
      "transactionHash": "0x1788598058b0f1e8952d887134ed7063b3acb2110683862b4812c66a074a3846",
      "transactionIndex": "0x1",
      "blockHash": "0xae6ae18ae931978b1980cf5b59d7627c0ca5a66c6915cd05dc58bf09c98e389f",
      "blockNumber": "0x2c",
      "gasUsed": "0x10ca3",
      "effectiveGasPrice": "0xf4240",
      "blobGasUsed": "0x0",
      "from": "0xf39fd6e51aad88f6f4ce6ab8827279cfffb92266",
      "to": "0xe7f1725e7734ce288f8367e1bb143e90bb3f0512",
      "contractAddress": null,
      "l1BaseFeeScalar": "0x146b",
      "l1BlobBaseFee": "0x1",
      "l1BlobBaseFeeScalar": "0xf79c5",
      "l1Fee": "0x20e6588d2",
      "l1GasPrice": "0x3ef12787",
      "l1GasUsed": "0x640"
    },
    {
      "status": "0x1",
      "cumulativeGasUsed": "0x16e01",
      "logs": [
        {
          "address": "0x9fe46736679d2d9a65f0992f2272de9f3c7fa6e0",
          "topics": [
            "0xddf252ad1be2c89b69c2b068fc378daa952ba7f163c4a11628f55a4df523b3ef",
            "0x0000000000000000000000000000000000000000000000000000000000000000",
            "0x000000000000000000000000f39fd6e51aad88f6f4ce6ab8827279cfffb92266"
          ],
          "data": "0x00000000000000000000000000000000000000000000d3c21bcecceda1000000",
          "blockHash": "0x6c4a14119a3e6a27699acbbdd7fcb0347cb492646425eace6b1f308cec40a36a",
          "blockNumber": "0x2d",
          "blockTimestamp": "0x69444078",
          "transactionHash": "0xf6bd197a190f213789ac3775033b0433bf86948b9bf2bf40fd7a8811c2d094e4",
          "transactionIndex": "0x1",
          "logIndex": "0x0",
          "removed": false
        }
      ],
      "logsBloom": "0x00000000000000000000000000000000000000000000000000000000000000000000000000000000000000000000000000000000000040200000000000000000000000000000000000000008000000000000000000000000000000000000000000000000020000000000000100000800000000000000000000000010000000000000000000000000000000000000000000000000000000000000000000000000000000000000000000000000000000000000000000000000000000000000000000000002000000200000000000000000000000002000000000000000000020000000000000000000000000000000000000000000000000400000000000000000",
      "type": "0x0",
      "transactionHash": "0xf6bd197a190f213789ac3775033b0433bf86948b9bf2bf40fd7a8811c2d094e4",
      "transactionIndex": "0x1",
      "blockHash": "0x6c4a14119a3e6a27699acbbdd7fcb0347cb492646425eace6b1f308cec40a36a",
      "blockNumber": "0x2d",
      "gasUsed": "0x10cc7",
      "effectiveGasPrice": "0xf4240",
      "blobGasUsed": "0x0",
      "from": "0xf39fd6e51aad88f6f4ce6ab8827279cfffb92266",
      "to": "0x9fe46736679d2d9a65f0992f2272de9f3c7fa6e0",
      "contractAddress": null,
      "l1BaseFeeScalar": "0x146b",
      "l1BlobBaseFee": "0x1",
      "l1BlobBaseFeeScalar": "0xf79c5",
      "l1Fee": "0x20e6588d2",
      "l1GasPrice": "0x3ef12787",
      "l1GasUsed": "0x640"
    },
    {
      "status": "0x1",
      "cumulativeGasUsed": "0x16df5",
      "logs": [
        {
          "address": "0xcf7ed3acca5a467e9e704c703e8d87f634fb0fc9",
          "topics": [
            "0xddf252ad1be2c89b69c2b068fc378daa952ba7f163c4a11628f55a4df523b3ef",
            "0x0000000000000000000000000000000000000000000000000000000000000000",
            "0x000000000000000000000000f39fd6e51aad88f6f4ce6ab8827279cfffb92266"
          ],
          "data": "0x00000000000000000000000000000000000000000000000000038d7ea4c68000",
          "blockHash": "0x2eb03148a83bffbd737a3b8e0426001ea462e283b60995bbdff1004c773f25b0",
          "blockNumber": "0x2e",
          "blockTimestamp": "0x6944407a",
          "transactionHash": "0x53d7cefd218848c939a1bb8df15caff421a46102a1dc763a4bcc06b91d9b9ca4",
          "transactionIndex": "0x1",
          "logIndex": "0x0",
          "removed": false
        }
      ],
      "logsBloom": "0x00000000000000000000000000000000000000000000000000000000000000000000000000000000000000000000080000000000000000000000000000000001000000000000000000000008000000000000000000000000000000000000000000000000020000000000000100000800000000000000000000000010000000000000000008000000000000000000000000000000000000000000000000000000000000000000000000000000000000000000000000000000000000000000000000000002000000200000000000000000000000002000000000000000000020000000000000000000000000000000000000000000000000000000000000000000",
      "type": "0x0",
      "transactionHash": "0x53d7cefd218848c939a1bb8df15caff421a46102a1dc763a4bcc06b91d9b9ca4",
      "transactionIndex": "0x1",
      "blockHash": "0x2eb03148a83bffbd737a3b8e0426001ea462e283b60995bbdff1004c773f25b0",
      "blockNumber": "0x2e",
      "gasUsed": "0x10cbb",
      "effectiveGasPrice": "0xf4240",
      "blobGasUsed": "0x0",
      "from": "0xf39fd6e51aad88f6f4ce6ab8827279cfffb92266",
      "to": "0xcf7ed3acca5a467e9e704c703e8d87f634fb0fc9",
      "contractAddress": null,
      "l1BaseFeeScalar": "0x146b",
      "l1BlobBaseFee": "0x1",
      "l1BlobBaseFeeScalar": "0xf79c5",
      "l1Fee": "0x20e6588d2",
      "l1GasPrice": "0x3ef12787",
      "l1GasUsed": "0x640"
    },
    {
      "status": "0x1",
      "cumulativeGasUsed": "0xb8ba",
      "logs": [
        {
          "address": "0x4200000000000000000000000000000000000042",
          "topics": [
            "0x0301ea329d99155e0b334e43af95b2c25acbfceb9f3c7be33f23db62202475f9",
            "0x0000000000000000000000000000000000000000000000000000000000000000",
            "0x000000000000000000000000e7f1725e7734ce288f8367e1bb143e90bb3f0512",
            "0x2fbd5d0c8cda4ab4424307db701584c98ae1ad11470a0a0f0ba56b9383fbbd0e"
          ],
          "data": "0x",
          "blockHash": "0xe31beedae527e6f859d6b930978b809853f3e2a6c2172ba9a627a7ceb5e030eb",
          "blockNumber": "0x2f",
          "blockTimestamp": "0x6944407c",
          "transactionHash": "0xe9ef2893c813834262345ba4b162ecd388794d361c06863592d2cbace4af279c",
          "transactionIndex": "0x1",
          "logIndex": "0x0",
          "removed": false
        }
      ],
      "logsBloom": "0x00000000000000000400000000000000000000000000000000000000010000000000004000000000000000000000000000000000000000000400000000000040000000400000000020000000000000000000000000000000000000000000000000000000020000000000000000000800000000000000000020000004000000000000000000000000000000000000000000000000000000000000000000000000000000000000000000000002000000000000000000000000000000000000000000000000000000000000000000000000008000000000000000000000000020000000000000000000000000000000000000010000000000000000000000000000",
      "type": "0x2",
      "transactionHash": "0xe9ef2893c813834262345ba4b162ecd388794d361c06863592d2cbace4af279c",
      "transactionIndex": "0x1",
      "blockHash": "0xe31beedae527e6f859d6b930978b809853f3e2a6c2172ba9a627a7ceb5e030eb",
      "blockNumber": "0x2f",
      "gasUsed": "0x5780",
      "effectiveGasPrice": "0xf4240",
      "blobGasUsed": "0x0",
      "from": "0xf39fd6e51aad88f6f4ce6ab8827279cfffb92266",
      "to": "0x4200000000000000000000000000000000000042",
      "contractAddress": null,
      "l1BaseFeeScalar": "0x146b",
      "l1BlobBaseFee": "0x1",
      "l1BlobBaseFeeScalar": "0xf79c5",
      "l1Fee": "0x20e6588d2",
      "l1GasPrice": "0x3ef12787",
      "l1GasUsed": "0x640"
    },
    {
      "status": "0x1",
      "cumulativeGasUsed": "0xb8ba",
      "logs": [
        {
          "address": "0x4200000000000000000000000000000000000042",
          "topics": [
            "0x0301ea329d99155e0b334e43af95b2c25acbfceb9f3c7be33f23db62202475f9",
            "0x0000000000000000000000000000000000000000000000000000000000000000",
            "0x0000000000000000000000009fe46736679d2d9a65f0992f2272de9f3c7fa6e0",
            "0x90dd507285247b934813b8b27b08b5ebe8ac309c73228029eaae73c82db750cd"
          ],
          "data": "0x",
          "blockHash": "0x614537d5ebb896b59f1c0e4a8d0ccfd0f15ccc3c2ac251d40dc1663b02778669",
          "blockNumber": "0x30",
          "blockTimestamp": "0x6944407e",
          "transactionHash": "0x8a921eaa5368679fc284a09be2689d5a93340e20c21a01a6364087e2798b1145",
          "transactionIndex": "0x1",
          "logIndex": "0x0",
          "removed": false
        }
      ],
      "logsBloom": "0x00000000000000000000000000000000000000000000000000000000000000000000004000000000000400000000000000400000000000000000000000000040000000400000000020000000000000000000000000000000000000000000400000000000820000000000100000000800000000000000000020000000000000000000000000000000000000000000000000000000000000000000000000000000000000000000000000000000000000000000000000000000000000000000000000000000000000000000000000000000008000000000000000000000000020000000000000000100000000000000000000000000000000000000000000000000",
      "type": "0x2",
      "transactionHash": "0x8a921eaa5368679fc284a09be2689d5a93340e20c21a01a6364087e2798b1145",
      "transactionIndex": "0x1",
      "blockHash": "0x614537d5ebb896b59f1c0e4a8d0ccfd0f15ccc3c2ac251d40dc1663b02778669",
      "blockNumber": "0x30",
      "gasUsed": "0x5780",
      "effectiveGasPrice": "0xf4240",
      "blobGasUsed": "0x0",
      "from": "0xf39fd6e51aad88f6f4ce6ab8827279cfffb92266",
      "to": "0x4200000000000000000000000000000000000042",
      "contractAddress": null,
      "l1BaseFeeScalar": "0x146b",
      "l1BlobBaseFee": "0x1",
      "l1BlobBaseFeeScalar": "0xf79c5",
      "l1Fee": "0x20e6588d2",
      "l1GasPrice": "0x3ef12787",
      "l1GasUsed": "0x640"
    },
    {
      "status": "0x1",
      "cumulativeGasUsed": "0xb8ba",
      "logs": [
        {
          "address": "0x4200000000000000000000000000000000000042",
          "topics": [
            "0x0301ea329d99155e0b334e43af95b2c25acbfceb9f3c7be33f23db62202475f9",
            "0x0000000000000000000000000000000000000000000000000000000000000000",
            "0x000000000000000000000000cf7ed3acca5a467e9e704c703e8d87f634fb0fc9",
            "0x1c3baf92f4bf1b471ec07e5504ee7b0d0d521b04db0848af2294cb8d280ce306"
          ],
          "data": "0x",
          "blockHash": "0xee3544fdec80ba914fdd602c6f965d3593d5a75903c9db5c84fe932093e01a47",
          "blockNumber": "0x31",
          "blockTimestamp": "0x69444080",
          "transactionHash": "0x13b98c6f8c325ac52bf1284604bb80b8fc4431e43e9a7cad14afb3c206dff539",
          "transactionIndex": "0x1",
          "logIndex": "0x0",
          "removed": false
        }
      ],
      "logsBloom": "0x00000000000000000000000000000000008000000000000000000000000000000000004000000080000000000000000000000000000000000000000000000040000000400000000020000000000000000000000000000000000000000000000000000000020000000000000000000800000000000004000020000000000000000000000000000000000000000000000000000000000000000000000000000000000000001000000000000002000000000000000000000000000000000000000000000000000000000000000000000000008000000000000000000000000020000000000000000000008000000000000000000000000000000000000000000000",
      "type": "0x2",
      "transactionHash": "0x13b98c6f8c325ac52bf1284604bb80b8fc4431e43e9a7cad14afb3c206dff539",
      "transactionIndex": "0x1",
      "blockHash": "0xee3544fdec80ba914fdd602c6f965d3593d5a75903c9db5c84fe932093e01a47",
      "blockNumber": "0x31",
      "gasUsed": "0x5780",
      "effectiveGasPrice": "0xf4240",
      "blobGasUsed": "0x0",
      "from": "0xf39fd6e51aad88f6f4ce6ab8827279cfffb92266",
      "to": "0x4200000000000000000000000000000000000042",
      "contractAddress": null,
      "l1BaseFeeScalar": "0x146b",
      "l1BlobBaseFee": "0x1",
      "l1BlobBaseFeeScalar": "0xf79c5",
      "l1Fee": "0x20e6588d2",
      "l1GasPrice": "0x3ef12787",
      "l1GasUsed": "0x640"
    },
    {
      "status": "0x1",
      "cumulativeGasUsed": "0xbf7c",
      "logs": [
        {
          "address": "0x4200000000000000000000000000000000000042",
          "topics": [
            "0x2f6caa028e00e4ff0c5dc6a821a9bbf3d490b6f24ef81cf523dd1c820ee22bb9",
            "0x0000000000000000000000000000000000000000000000000000000000000001",
            "0x000000000000000000000000f39fd6e51aad88f6f4ce6ab8827279cfffb92266",
            "0x000000000000000000000000e7f1725e7734ce288f8367e1bb143e90bb3f0512"
          ],
          "data": "0x000000000000000000000000000000000000000000000000000000015faadb00",
          "blockHash": "0xd90bacd1676f9a1c5db40cd76d1c23a2fab13699b602e94d959484b12272c6e4",
          "blockNumber": "0x32",
          "blockTimestamp": "0x69444082",
          "transactionHash": "0x73d4a5d5c0d8fde94657af1eee63c04fb4c705b19517e9728169a4d938efdaba",
          "transactionIndex": "0x1",
          "logIndex": "0x0",
          "removed": false
        }
      ],
      "logsBloom": "0x00000000000000000400000000000000000000000000000000000000000000000000000000000000000000040000000000000000000000000000000000040040000000000000000020000000000000000000000000040000000000000000000000000000000000000000000100000000000000000000000000000004000000000000000000000000000000000000000000000000000000000000000000000000000000000000000000000102010000000000000000000000000000000000000000000000000000200000000000000000008000002000000000000000000040000000000000000000000000000000000000000000000000000000000000000000",
      "type": "0x2",
      "transactionHash": "0x73d4a5d5c0d8fde94657af1eee63c04fb4c705b19517e9728169a4d938efdaba",
      "transactionIndex": "0x1",
      "blockHash": "0xd90bacd1676f9a1c5db40cd76d1c23a2fab13699b602e94d959484b12272c6e4",
      "blockNumber": "0x32",
      "gasUsed": "0x5e42",
      "effectiveGasPrice": "0xf4240",
      "blobGasUsed": "0x0",
      "from": "0xf39fd6e51aad88f6f4ce6ab8827279cfffb92266",
      "to": "0x4200000000000000000000000000000000000042",
      "contractAddress": null,
      "l1BaseFeeScalar": "0x146b",
      "l1BlobBaseFee": "0x1",
      "l1BlobBaseFeeScalar": "0xf79c5",
      "l1Fee": "0x20e6588d2",
      "l1GasPrice": "0x3ef12787",
      "l1GasUsed": "0x640"
    },
    {
      "status": "0x1",
      "cumulativeGasUsed": "0xbf5e",
      "logs": [
        {
          "address": "0x4200000000000000000000000000000000000042",
          "topics": [
            "0x2f6caa028e00e4ff0c5dc6a821a9bbf3d490b6f24ef81cf523dd1c820ee22bb9",
            "0x0000000000000000000000000000000000000000000000000000000000000002",
            "0x000000000000000000000000f39fd6e51aad88f6f4ce6ab8827279cfffb92266",
            "0x000000000000000000000000e7f1725e7734ce288f8367e1bb143e90bb3f0512"
          ],
          "data": "0x00000000000000000000000000000000000000000000000000000002068f7700",
          "blockHash": "0xd7439bc2f11b9c34d58f6b9e6286c6b4b8537b019ee240d9497abf82744d3723",
          "blockNumber": "0x33",
          "blockTimestamp": "0x69444084",
          "transactionHash": "0x48a725ed3a1a3f9f38dbb6a8e63bf28ef3999a05033f434541f039841a8228f5",
          "transactionIndex": "0x1",
          "logIndex": "0x0",
          "removed": false
        }
      ],
      "logsBloom": "0x04000000000000000400000000000000000000000000000000000000000000000000000000000000000000040000000000000000000000000000000000000040000000000000000020000000000000000000000000000000000000000000000000000000000000000000000100000000000000000000000000000004000000000000000000000000000000000000000000000000000000000000000000000000000000000000000000000102010000000000000000000000000000000000000000000000000000200000000000000000008000002000000000000000000000000000000000000000000000000000000000000000008000000000000000000000",
      "type": "0x2",
      "transactionHash": "0x48a725ed3a1a3f9f38dbb6a8e63bf28ef3999a05033f434541f039841a8228f5",
      "transactionIndex": "0x1",
      "blockHash": "0xd7439bc2f11b9c34d58f6b9e6286c6b4b8537b019ee240d9497abf82744d3723",
      "blockNumber": "0x33",
      "gasUsed": "0x5e24",
      "effectiveGasPrice": "0xf4240",
      "blobGasUsed": "0x0",
      "from": "0xf39fd6e51aad88f6f4ce6ab8827279cfffb92266",
      "to": "0x4200000000000000000000000000000000000042",
      "contractAddress": null,
      "l1BaseFeeScalar": "0x146b",
      "l1BlobBaseFee": "0x1",
      "l1BlobBaseFeeScalar": "0xf79c5",
      "l1Fee": "0x20e6588d2",
      "l1GasPrice": "0x3ef12787",
      "l1GasUsed": "0x640"
    },
    {
      "status": "0x1",
      "cumulativeGasUsed": "0xbf9a",
      "logs": [
        {
          "address": "0x4200000000000000000000000000000000000042",
          "topics": [
            "0x2f6caa028e00e4ff0c5dc6a821a9bbf3d490b6f24ef81cf523dd1c820ee22bb9",
            "0x0000000000000000000000000000000000000000000000000000000000000007",
            "0x000000000000000000000000f39fd6e51aad88f6f4ce6ab8827279cfffb92266",
            "0x000000000000000000000000e7f1725e7734ce288f8367e1bb143e90bb3f0512"
          ],
          "data": "0x00000000000000000000000000000000000000000000000000000003515dbe80",
          "blockHash": "0x78615493bb0fbd01c95bfb86ea6fc77e0ed95c7a81d678fbc45738994e847320",
          "blockNumber": "0x34",
          "blockTimestamp": "0x6944408e",
          "transactionHash": "0x50979a8fe9063c31fe2fc8bf4d37f72c9ea00a2da917844173065f1d44f2571e",
          "transactionIndex": "0x1",
          "logIndex": "0x0",
          "removed": false
        }
      ],
      "logsBloom": "0x00000000000000000400000000000000000000000000000000000000000000000000000000000000000000040000000000001000000000000000000000000040000020000000000020000000000000000000000000000000000000000000000000000000000000000000000100000000000000000000000000000004000000000000000000000000000000000000000000000000000000000000000000000000000000000000000000000102010000000000000000000000000000000000000000000000000000200000000000000000008000002000000000000100000000000000000000000000000000000000000000000000000000000000000000000000",
      "type": "0x2",
      "transactionHash": "0x50979a8fe9063c31fe2fc8bf4d37f72c9ea00a2da917844173065f1d44f2571e",
      "transactionIndex": "0x1",
      "blockHash": "0x78615493bb0fbd01c95bfb86ea6fc77e0ed95c7a81d678fbc45738994e847320",
      "blockNumber": "0x34",
      "gasUsed": "0x5e60",
      "effectiveGasPrice": "0xf4240",
      "blobGasUsed": "0x0",
      "from": "0xf39fd6e51aad88f6f4ce6ab8827279cfffb92266",
      "to": "0x4200000000000000000000000000000000000042",
      "contractAddress": null,
      "l1BaseFeeScalar": "0x146b",
      "l1BlobBaseFee": "0x1",
      "l1BlobBaseFeeScalar": "0xf79c5",
      "l1Fee": "0x20e6588d2",
      "l1GasPrice": "0x3ef12787",
      "l1GasUsed": "0x640"
    },
    {
      "status": "0x1",
      "cumulativeGasUsed": "0xbf9a",
      "logs": [
        {
          "address": "0x4200000000000000000000000000000000000042",
          "topics": [
            "0x2f6caa028e00e4ff0c5dc6a821a9bbf3d490b6f24ef81cf523dd1c820ee22bb9",
            "0x000000000000000000000000000000000000000000000000000000000000000b",
            "0x000000000000000000000000f39fd6e51aad88f6f4ce6ab8827279cfffb92266",
            "0x0000000000000000000000000000000000000000000000000000000000000000"
          ],
          "data": "0x0000000000000000000000000000000000000000000000001bc16d674ec80000",
          "blockHash": "0x89b37ba5eafdb910bd094171fcddaf9b333bc200967fd4442daf402ef320ab88",
          "blockNumber": "0x35",
          "blockTimestamp": "0x69444096",
          "transactionHash": "0x2f9e6e1eef824441a7c9139912808094531eed4bfd3ccfbc95a4ec54528a3d46",
          "transactionIndex": "0x1",
          "logIndex": "0x0",
          "removed": false
        }
      ],
      "logsBloom": "0x0000000000000000000000400000000000000000000000000000000000000000000000000000000000000004000000000000000000000000000000000000004000000000000000002000000000000000000000000000000000000000000000000000000002000000000000010000080000000000000000000000000000000000000000000000000000000000000000000000000000000000000000000000000000000000000000000000010001000000000000000000000000000000000000000000000000000020000000000000000000a000002000000000000000000020000000000000000000000000000000000000000000000000040000000000000000",
      "type": "0x2",
      "transactionHash": "0x2f9e6e1eef824441a7c9139912808094531eed4bfd3ccfbc95a4ec54528a3d46",
      "transactionIndex": "0x1",
      "blockHash": "0x89b37ba5eafdb910bd094171fcddaf9b333bc200967fd4442daf402ef320ab88",
      "blockNumber": "0x35",
      "gasUsed": "0x5e60",
      "effectiveGasPrice": "0xf4240",
      "blobGasUsed": "0x0",
      "from": "0xf39fd6e51aad88f6f4ce6ab8827279cfffb92266",
      "to": "0x4200000000000000000000000000000000000042",
      "contractAddress": null,
      "l1BaseFeeScalar": "0x146b",
      "l1BlobBaseFee": "0x1",
      "l1BlobBaseFeeScalar": "0xf79c5",
      "l1Fee": "0x20e6588d2",
      "l1GasPrice": "0x3ef12787",
      "l1GasUsed": "0x640"
    },
    {
      "status": "0x1",
      "cumulativeGasUsed": "0xbf7c",
      "logs": [
        {
          "address": "0x4200000000000000000000000000000000000042",
          "topics": [
            "0x2f6caa028e00e4ff0c5dc6a821a9bbf3d490b6f24ef81cf523dd1c820ee22bb9",
            "0x000000000000000000000000000000000000000000000000000000000000000c",
            "0x000000000000000000000000f39fd6e51aad88f6f4ce6ab8827279cfffb92266",
            "0x0000000000000000000000000000000000000000000000000000000000000000"
          ],
          "data": "0x00000000000000000000000000000000000000000000000029a2241af62c0000",
          "blockHash": "0x308b14a5dc0c3080c2abf01c8934c8661f9dcfac8de6e2556970a49f741793c4",
          "blockNumber": "0x36",
          "blockTimestamp": "0x69444098",
          "transactionHash": "0x89de1ca04748250cf55d70b673d67f4df21d04d2d786adf602bbba863bc8ed4b",
          "transactionIndex": "0x1",
          "logIndex": "0x0",
          "removed": false
        }
      ],
      "logsBloom": "0x00000000000000000000000000000000000002000000000000000000000000000000000000000200000000040000000000000000000000000000000000000040000000000000000020000000000000000000000000000000000000000000000000000000020000000000000100000800000000000000000000000000000000000000000000000000000000000000000000000000000000000000000000000000000000000000000000000100010000000000000000000000000000000000000000000000000000200000000000000000008000002000000000000000000020200000000000000000000000000000000000000000000000000000000000000000",
      "type": "0x2",
      "transactionHash": "0x89de1ca04748250cf55d70b673d67f4df21d04d2d786adf602bbba863bc8ed4b",
      "transactionIndex": "0x1",
      "blockHash": "0x308b14a5dc0c3080c2abf01c8934c8661f9dcfac8de6e2556970a49f741793c4",
      "blockNumber": "0x36",
      "gasUsed": "0x5e42",
      "effectiveGasPrice": "0xf4240",
      "blobGasUsed": "0x0",
      "from": "0xf39fd6e51aad88f6f4ce6ab8827279cfffb92266",
      "to": "0x4200000000000000000000000000000000000042",
      "contractAddress": null,
      "l1BaseFeeScalar": "0x146b",
      "l1BlobBaseFee": "0x1",
      "l1BlobBaseFeeScalar": "0xf79c5",
      "l1Fee": "0x20e6588d2",
      "l1GasPrice": "0x3ef12787",
      "l1GasUsed": "0x640"
    },
    {
      "status": "0x1",
      "cumulativeGasUsed": "0xbf9a",
      "logs": [
        {
          "address": "0x4200000000000000000000000000000000000042",
          "topics": [
            "0x2f6caa028e00e4ff0c5dc6a821a9bbf3d490b6f24ef81cf523dd1c820ee22bb9",
            "0x000000000000000000000000000000000000000000000000000000000000000d",
            "0x000000000000000000000000f39fd6e51aad88f6f4ce6ab8827279cfffb92266",
            "0x0000000000000000000000000000000000000000000000000000000000000000"
          ],
          "data": "0x0000000000000000000000000000000000000000000000004563918244f40000",
          "blockHash": "0x1c222f675f3c56bc1cf0d9bb16f7b86f0208146083f0651c527633c2badec451",
          "blockNumber": "0x37",
          "blockTimestamp": "0x6944409a",
          "transactionHash": "0x584c9e4e29a8eff0128f2280f99b2f9e27d9198ba5e5844b2c478775ef06030f",
          "transactionIndex": "0x1",
          "logIndex": "0x0",
          "removed": false
        }
      ],
      "logsBloom": "0x00000000000000000040000000000000000000000000000000000000000000000000000000000000000000040000000000000000000000000000000000000040000000000000000020000000000000000002000000000000000000000000000000000000020000000000000100000800000000000000000000000000000000000000000000000000000000000000000000000000000000000000000000000000000000000000000000000100010000000000000000000000000000000000000000000000000000200000000000000000008000002000000000000000000020020000000000000000000000000000000000000000000000000000000000000000",
      "type": "0x2",
      "transactionHash": "0x584c9e4e29a8eff0128f2280f99b2f9e27d9198ba5e5844b2c478775ef06030f",
      "transactionIndex": "0x1",
      "blockHash": "0x1c222f675f3c56bc1cf0d9bb16f7b86f0208146083f0651c527633c2badec451",
      "blockNumber": "0x37",
      "gasUsed": "0x5e60",
      "effectiveGasPrice": "0xf4240",
      "blobGasUsed": "0x0",
      "from": "0xf39fd6e51aad88f6f4ce6ab8827279cfffb92266",
      "to": "0x4200000000000000000000000000000000000042",
      "contractAddress": null,
      "l1BaseFeeScalar": "0x146b",
      "l1BlobBaseFee": "0x1",
      "l1BlobBaseFeeScalar": "0xf79c5",
      "l1Fee": "0x20e6588d2",
      "l1GasPrice": "0x3ef12787",
      "l1GasUsed": "0x640"
    },
    {
      "status": "0x1",
      "cumulativeGasUsed": "0xbff4",
      "logs": [
        {
          "address": "0x4200000000000000000000000000000000000042",
          "topics": [
            "0x2f6caa028e00e4ff0c5dc6a821a9bbf3d490b6f24ef81cf523dd1c820ee22bb9",
            "0x0000000000000000000000000000000000000000000000000000000000000001",
            "0x000000000000000000000000f39fd6e51aad88f6f4ce6ab8827279cfffb92266",
            "0x0000000000000000000000000000000000000000000000000000000000000000"
          ],
          "data": "0x0000000000000000000000000000000000000000000000001bc16d674ec80000",
          "blockHash": "0x76680752b6ea2012fab436df63cf54cde867a2b6ae9670335f6aa699dbef5d42",
          "blockNumber": "0x38",
          "blockTimestamp": "0x6944409c",
          "transactionHash": "0x2a4a28c20544eb67e9572492d601581f4c42e027fe5673cf97d2ca10c490e3c5",
          "transactionIndex": "0x1",
          "logIndex": "0x0",
          "removed": false
        }
      ],
      "logsBloom": "0x00000000000000000000000000000000000000000000000000000000000000000000000000000000000000040000000000000000000000000000000000040040000000000000000020000000000000000000000000040000000000000000000000000000020000000000000100000800000000000000000000000000000000000000000000000000000000000000000000000000000000000000000000000000000000000000000000000100010000000000000000000000000000000000000000000000000000200000000000000000008000002000000000000000000060000000000000000000000000000000000000000000000000000000000000000000",
      "type": "0x2",
      "transactionHash": "0x2a4a28c20544eb67e9572492d601581f4c42e027fe5673cf97d2ca10c490e3c5",
      "transactionIndex": "0x1",
      "blockHash": "0x76680752b6ea2012fab436df63cf54cde867a2b6ae9670335f6aa699dbef5d42",
      "blockNumber": "0x38",
      "gasUsed": "0x5eba",
      "effectiveGasPrice": "0xf4240",
      "blobGasUsed": "0x0",
      "from": "0xf39fd6e51aad88f6f4ce6ab8827279cfffb92266",
      "to": "0x4200000000000000000000000000000000000042",
      "contractAddress": null,
      "l1BaseFeeScalar": "0x146b",
      "l1BlobBaseFee": "0x1",
      "l1BlobBaseFeeScalar": "0xf79c5",
      "l1Fee": "0x20e6588d2",
      "l1GasPrice": "0x3ef12787",
      "l1GasUsed": "0x640"
    },
    {
      "status": "0x1",
      "cumulativeGasUsed": "0xc030",
      "logs": [
        {
          "address": "0x4200000000000000000000000000000000000042",
          "topics": [
            "0x2f6caa028e00e4ff0c5dc6a821a9bbf3d490b6f24ef81cf523dd1c820ee22bb9",
            "0x0000000000000000000000000000000000000000000000000000000000000005",
            "0x000000000000000000000000f39fd6e51aad88f6f4ce6ab8827279cfffb92266",
            "0x0000000000000000000000009fe46736679d2d9a65f0992f2272de9f3c7fa6e0"
          ],
          "data": "0x0000000000000000000000000000000000000000000000f0b160bbdf2e600000",
          "blockHash": "0xebae18492c6e26f36b2e8fcf6069ca7be2642b52697b55afd652044cd4fd35af",
          "blockNumber": "0x39",
          "blockTimestamp": "0x694440a4",
          "transactionHash": "0xabc339429b4583be12f308b5050cb215e2c7dd7a637cf0de55f0004a27500705",
          "transactionIndex": "0x1",
          "logIndex": "0x0",
          "removed": false
        }
      ],
      "logsBloom": "0x00000000000000000000000000000000000000000000000000000000000000000000000000000000000400040000000000400000000000000000000000000040000010000000000020000000000000000000000000000000000000000000400000000000000000000000000100000000000000000000000000000000000000000000000000000000000000000000001000000800000000000000000000000000000000000000000000000100010000000000000000000000000000000000000000000000000000200000000000000000008000002000000000000000000000000000000000000000000000000000000000000000000000000000000000000000",
      "type": "0x2",
      "transactionHash": "0xabc339429b4583be12f308b5050cb215e2c7dd7a637cf0de55f0004a27500705",
      "transactionIndex": "0x1",
      "blockHash": "0xebae18492c6e26f36b2e8fcf6069ca7be2642b52697b55afd652044cd4fd35af",
      "blockNumber": "0x39",
      "gasUsed": "0x5ef6",
      "effectiveGasPrice": "0xf4240",
      "blobGasUsed": "0x0",
      "from": "0xf39fd6e51aad88f6f4ce6ab8827279cfffb92266",
      "to": "0x4200000000000000000000000000000000000042",
      "contractAddress": null,
      "l1BaseFeeScalar": "0x146b",
      "l1BlobBaseFee": "0x1",
      "l1BlobBaseFeeScalar": "0xf79c5",
      "l1Fee": "0x20e6588d2",
      "l1GasPrice": "0x3ef12787",
      "l1GasUsed": "0x640"
    },
    {
      "status": "0x1",
      "cumulativeGasUsed": "0xbff4",
      "logs": [
        {
          "address": "0x4200000000000000000000000000000000000042",
          "topics": [
            "0x2f6caa028e00e4ff0c5dc6a821a9bbf3d490b6f24ef81cf523dd1c820ee22bb9",
            "0x000000000000000000000000000000000000000000000000000000000000000a",
            "0x000000000000000000000000f39fd6e51aad88f6f4ce6ab8827279cfffb92266",
            "0x0000000000000000000000000000000000000000000000000000000000000000"
          ],
          "data": "0x00000000000000000000000000000000000000000000000029a2241af62c0000",
          "blockHash": "0xfebe48bfe9b7c9266fe3ab1f1e9ffaba4a831d624ac8a704dda256780d4600a1",
          "blockNumber": "0x3a",
          "blockTimestamp": "0x694440ae",
          "transactionHash": "0xd2bd62bc9aff2c83065970fbe1373cc9b2d93ec95ba0a609831c5bccb2e464c9",
          "transactionIndex": "0x1",
          "logIndex": "0x0",
          "removed": false
        }
      ],
      "logsBloom": "0x00000000000000000000000000000000000000000000000000000000000000000000000000000000000000040000000000000000040000000020000000000040000000000000000020000000000000000000000000000000000000000000000000000000020000000000000100000800000000000000000000000000000000000000000000000000010000000000000000000000000000000000000000000000000000000000000000000100010000000000000000000000000000000000000000000000000000200000000000000000008000002000000000000000000020000000000000000000000000000000000000000000000000000000000000000000",
      "type": "0x2",
      "transactionHash": "0xd2bd62bc9aff2c83065970fbe1373cc9b2d93ec95ba0a609831c5bccb2e464c9",
      "transactionIndex": "0x1",
      "blockHash": "0xfebe48bfe9b7c9266fe3ab1f1e9ffaba4a831d624ac8a704dda256780d4600a1",
      "blockNumber": "0x3a",
      "gasUsed": "0x5eba",
      "effectiveGasPrice": "0xf4240",
      "blobGasUsed": "0x0",
      "from": "0xf39fd6e51aad88f6f4ce6ab8827279cfffb92266",
      "to": "0x4200000000000000000000000000000000000042",
      "contractAddress": null,
      "l1BaseFeeScalar": "0x146b",
      "l1BlobBaseFee": "0x1",
      "l1BlobBaseFeeScalar": "0xf79c5",
      "l1Fee": "0x20e6588d2",
      "l1GasPrice": "0x3ef12787",
      "l1GasUsed": "0x640"
    },
    {
      "status": "0x1",
      "cumulativeGasUsed": "0xbf9a",
      "logs": [
        {
          "address": "0x4200000000000000000000000000000000000042",
          "topics": [
            "0x2f6caa028e00e4ff0c5dc6a821a9bbf3d490b6f24ef81cf523dd1c820ee22bb9",
            "0x0000000000000000000000000000000000000000000000000000000000000003",
            "0x000000000000000000000000f39fd6e51aad88f6f4ce6ab8827279cfffb92266",
            "0x0000000000000000000000000000000000000000000000000000000000000000"
          ],
          "data": "0x0000000000000000000000000000000000000000000000001bc16d674ec80000",
          "blockHash": "0xa0fd5314f8417adef6539754895ca5dbda53f9d5b5456de84f6f01d37bc89125",
          "blockNumber": "0x3b",
          "blockTimestamp": "0x694440b4",
          "transactionHash": "0x9cf88103a72103ffcd5b264904b904d98fc09d242ce9552c752583f1cae70315",
          "transactionIndex": "0x1",
          "logIndex": "0x0",
          "removed": false
        }
      ],
      "logsBloom": "0x00000000000000000000000000000000000000000000000000000000000000000000000000000000000000040000000000000000020000000000000000000040000000000000000020000000000000000000000000000000000000000000000000000000020000000000000100000800000000000000000000000000000000000000000000000000000000000000000000000000000000000000000000000000000000000000000000000100010000000000000000800000000000000000400000000000000000200000000000000000008000002000000000000000000020000000000000000000000000000000000000000000000000000000000000000000",
      "type": "0x2",
      "transactionHash": "0x9cf88103a72103ffcd5b264904b904d98fc09d242ce9552c752583f1cae70315",
      "transactionIndex": "0x1",
      "blockHash": "0xa0fd5314f8417adef6539754895ca5dbda53f9d5b5456de84f6f01d37bc89125",
      "blockNumber": "0x3b",
      "gasUsed": "0x5e60",
      "effectiveGasPrice": "0xf4240",
      "blobGasUsed": "0x0",
      "from": "0xf39fd6e51aad88f6f4ce6ab8827279cfffb92266",
      "to": "0x4200000000000000000000000000000000000042",
      "contractAddress": null,
      "l1BaseFeeScalar": "0x146b",
      "l1BlobBaseFee": "0x1",
      "l1BlobBaseFeeScalar": "0xf79c5",
      "l1Fee": "0x20e6588d2",
      "l1GasPrice": "0x3ef12787",
      "l1GasUsed": "0x640"
    },
    {
      "status": "0x1",
      "cumulativeGasUsed": "0xbf7c",
      "logs": [
        {
          "address": "0x4200000000000000000000000000000000000042",
          "topics": [
            "0x2f6caa028e00e4ff0c5dc6a821a9bbf3d490b6f24ef81cf523dd1c820ee22bb9",
            "0x0000000000000000000000000000000000000000000000000000000000000004",
            "0x000000000000000000000000f39fd6e51aad88f6f4ce6ab8827279cfffb92266",
            "0x000000000000000000000000cf7ed3acca5a467e9e704c703e8d87f634fb0fc9"
          ],
          "data": "0x000000000000000000000000000000000000000000000000000000111cf0ff00",
          "blockHash": "0xd84e4f3c3b025b836af0f725b71b07a54dc4585a70114c4dbe180df41cd4eb70",
          "blockNumber": "0x3c",
          "blockTimestamp": "0x694440b6",
          "transactionHash": "0x2da2785739e1e4d9db6d5eead8063f9978178b593ea0e872410cebbbc40c8683",
          "transactionIndex": "0x1",
          "logIndex": "0x0",
          "removed": false
        }
      ],
      "logsBloom": "0x0000000000000000000000000000000000000000000000000000000000000000000000000000008000000004000000000000000000000000000000000000004000000000000000002000000000000000000000000000000000000000000000000800000000000000000000010000000000000000000000000000000000000000000000000000000000000000000000000000000000000000000000000000000000000000100000000000010001000000000000000000000000200000000000000000000000000020000000000000000000800000a000000000000000000000000000000000000000008000000000000000000000000000000000000000000000",
      "type": "0x2",
      "transactionHash": "0x2da2785739e1e4d9db6d5eead8063f9978178b593ea0e872410cebbbc40c8683",
      "transactionIndex": "0x1",
      "blockHash": "0xd84e4f3c3b025b836af0f725b71b07a54dc4585a70114c4dbe180df41cd4eb70",
      "blockNumber": "0x3c",
      "gasUsed": "0x5e42",
      "effectiveGasPrice": "0xf4240",
      "blobGasUsed": "0x0",
      "from": "0xf39fd6e51aad88f6f4ce6ab8827279cfffb92266",
      "to": "0x4200000000000000000000000000000000000042",
      "contractAddress": null,
      "l1BaseFeeScalar": "0x146b",
      "l1BlobBaseFee": "0x1",
      "l1BlobBaseFeeScalar": "0xf79c5",
      "l1Fee": "0x20e6588d2",
      "l1GasPrice": "0x3ef12787",
      "l1GasUsed": "0x640"
    },
    {
      "status": "0x1",
      "cumulativeGasUsed": "0xbf9a",
      "logs": [
        {
          "address": "0x4200000000000000000000000000000000000042",
          "topics": [
            "0x2f6caa028e00e4ff0c5dc6a821a9bbf3d490b6f24ef81cf523dd1c820ee22bb9",
            "0x0000000000000000000000000000000000000000000000000000000000000005",
            "0x000000000000000000000000f39fd6e51aad88f6f4ce6ab8827279cfffb92266",
            "0x0000000000000000000000000000000000000000000000000000000000000000"
          ],
          "data": "0x00000000000000000000000000000000000000000000000029a2241af62c0000",
          "blockHash": "0x38f29c42efec83ba14db9ab6c42a11e060f23c6ef0f904d9b0f1c6c00c06984e",
          "blockNumber": "0x3d",
          "blockTimestamp": "0x694440b8",
          "transactionHash": "0xd6b85165f7cc3077120c602868a79ba4c14c9d6fbcafc638fb321ae3f1db7624",
          "transactionIndex": "0x1",
          "logIndex": "0x0",
          "removed": false
        }
      ],
      "logsBloom": "0x00000000000000000000000000000000000000000000000000000000000000000000000000000000000000040000000000000000000000000000000000000040000010000000000020000000000000000000000000000000000000000000000000000000020000000000000100000800000000000000000000000000000000000000000000000000000000000000001000000800000000000000000000000000000000000000000000000100010000000000000000000000000000000000000000000000000000200000000000000000008000002000000000000000000020000000000000000000000000000000000000000000000000000000000000000000",
      "type": "0x2",
      "transactionHash": "0xd6b85165f7cc3077120c602868a79ba4c14c9d6fbcafc638fb321ae3f1db7624",
      "transactionIndex": "0x1",
      "blockHash": "0x38f29c42efec83ba14db9ab6c42a11e060f23c6ef0f904d9b0f1c6c00c06984e",
      "blockNumber": "0x3d",
      "gasUsed": "0x5e60",
      "effectiveGasPrice": "0xf4240",
      "blobGasUsed": "0x0",
      "from": "0xf39fd6e51aad88f6f4ce6ab8827279cfffb92266",
      "to": "0x4200000000000000000000000000000000000042",
      "contractAddress": null,
      "l1BaseFeeScalar": "0x146b",
      "l1BlobBaseFee": "0x1",
      "l1BlobBaseFeeScalar": "0xf79c5",
      "l1Fee": "0x20e6588d2",
      "l1GasPrice": "0x3ef12787",
      "l1GasUsed": "0x640"
    }
  ],
  "libraries": [],
  "pending": [],
  "returns": {},
  "timestamp": 1766080697377,
  "chain": 1337,
  "commit": "ed251e4"
}